:400000000010002011000000292100002921000080B500AF02F08CF880B584B000AF021CFB1D1A70204A3B1C0B3312781A701F4A3B1C0A3312781A700423013BFB6018E0DF
:400040001B4B1868391C0B31FA68131C5B009B18C3185B780B70164B1868391C0A31FA68131C5B009B18C3189B780B70FB68013BFB60FB68002B0ADB0D4B1968FA68131CF1
:400080005B009B185B5CFA1D12789A42D8D9094B3A1C0B3212781A60074B3A1C0A3212781A60BD4604B080BDCCF1FF0FCDF1FF0FD00000201CFF0B4020FF0B4080B500AF4B
:4000C0001F4B1F4A12688021C9020A431A601820FFF7A2FF1B4B19221A60052002F0FCF8194B1A4A1278D2B21A60052002F0DCF9134B134A1168164A0A401A60154B164A37
:400100001A60164B20221A60154B10221A60154B30221A60144B11221A60144B802212061A60134B134A1A60134B144A1A60144B144A1A60144B154A1A60BD4680BDC04631
:4001400000010B402CFF0B4028FF0B40E5F1FF0FFFFFFBFF04010B4006000080080202400C020240200202403002024008010B40000002400C000080400002400E000080F3
:40018000800002402F00008004000240BF5D008080B582B000AF72B6484B01221A70FB1D00221A7023E0FB1D1A78131C5B009B185B00434A9B183B603B681A785978090279
:4001C0000A43997809040A43DB781B0613431A1C3B6819795B791B020B439BB2101C191C02F024F8FB1D1A78FB1D01321A70FB1D1B78012BD7D9334A334B101C191C02F0C3
:4002000025F8324B992212041A60314BEE2212021A60304BEE221A602F4B20221A602F4B2F4A1A602F4B20221A602F4B2F4A1A602F4B03221A602F4BD82212011A602E4BE1
:4002400003221A602D4B24221A602D4B992212041A602C4B992212041A602B4B992212041A602A4B992212041A60294B01221A60284B02221A60284B274A1278D2B202216A
:400280000A43D2B21A70254B244A1278D2B20C218A43D2B204210A43D2B21A701E4B1E4A1278D2B216210A43D2B21A70FFF706FF02F00CF8BD4602B080BDC0461C700F40C4
:4002C0008C3E0000983E0000AC3E0000000001400C00014010000140000004400800044086110300180004400801044030000300080204400803044000040440080404405A
:4003000000500F4010500F4020500F4030500F402000004000800F4000700F4001700F4010B5064C2378002B07D1054B002B02D0044800E000BF0123237010BDE8000020BA
:4003400000000000843E000008B5084B002B03D00748084900E000BF07480368002B03D0064B002B00D0984708BDC04600000000843E0000EC000020C8000020000000000A
:4003800080B586B000AF304B181C00217D2203F071FD02F06DF92D4B181C02F02DFA002002F0EAFA02F016FC294B181C02F0A2FB02F03CFB00237B6162B6264BFA229200A6
:4003C0001A81244B6422DA8100F04CF801F0EEFD01F054FA3B1D00221A603B1D00225A603B1D00229A603B1D0022DA601A4B1B78002B05D000F0E2F93B1D181C01F090FDA6
:400400003B1D1B68181C03F025FC031C9BB21AB2124B1A603B1D5B68181C03F01BFC031C9BB21AB20D4B5A603B1D9B68181C03F011FC031C9BB21AB2084B9A60084B1B78ED
:4004400000F068F8D2E7C046D402002071050000D1050000280100200D0100200C0200205401002080B500AF254B1B6A002B0CD1244B254A5A61234B244A9A61214B244AE6
:40048000DA61204B00221A6237E01D4B1B6A181C03F05CFC021C1B4B5A61194B5B6A181C03F054FC021C174B5B69101C191C03F0EDF9031C1A1C134B9A61114B9B6A181CD5
:4004C00003F044FC021C0F4B5B69101C191C03F0DDF9031C1A1C0B4BDA61094BDB6A181C03F034FC021C074B5B69101C191C03F0CDF9031C1A1C034B1A62BD4680BDC046DA
:400500000C0200202801002000007A446666663FCDCC4C3E80B500AF124BDB881AB2124B1A60104B9B881AB20F4B5A600D4B1B891AB20D4B9A600B4B5B891AB20A4BDA609E
:40054000084B9B891AB2084B1A61064B1B8A1AB2054BDA61054B1B781A1C034B5A63BD4680BDC046280100200C0200205001002080B582B000AF00F037F8064B01221A7098
:40058000054B1B687B60054B7A681A60BD4602B080BDC04656010020CC0F0740C00F074080B582B000AF00F08BF800237B60074B01221A7002F030F8031C7B607B68181C89
:4005C00002F034F8BD4602B080BDC0465501002080B500AF034B01221A7002F049FABD4680BDC0465401002098B500AF2B4B1B78DBB2002B1FD02A4B1B78DBB21C1C02F035
:40060000D9F8031CDAB2274B1A55254B1B78DBB20133DAB2224B1A70234B1B78DBB20133DAB2214B1A70214B00221A701C4B1B78DAB21F4B1A701F4B1B78DBB2002B2BD090
:40064000174B1B78DBB21C1C02F0B4F8031CDAB2144B1A55124B1B78DBB20133DAB2104B1A700F4B1B78DAB2114B1A700B4B01221A70104B00221A7001F05EFF0E4B181C43
:4006800002F012F90D4B1B78DBB20133DAB20B4B1A70064B00221A70BD4698BD0401002005010020D40200200A0100200601002007010020CC000020A10500000B01002057
:4006C00080B500AF334B1B78DBB2002B1CD0314B1B78DBB2013BDAB22E4B1A702D4B1B78DBB2002B0AD101F039FF02F0EFF8002002F042F9274B00221A7005E001F01CFFFE
:40070000254B181C02F0D0F8224B1B78DBB2002B32D1224B1B78DBB2002B2DD0204B1B78DAB2204B1B78DBB29A4206D11E4B1B78DBB20133DAB21C4B1A701B4B1B78DBB263
:40074000052B13D1194B01221A70194B01221A70124B00221A70144B00221A70154B00221A7001F0FBFE02F0B1F805E001F0E4FE094B181C02F098F80A4B1B78DAB2084B15
:400780001A700D4B1B78DBB20133DAB20A4B1A70BD4680BD0E010020A105000004010020080100200701002006010020CC0000200D010020050100200901002080B500AF98
:4007C000224B1B78022B3BD100F0D8FF031C012B36D11E4B5B78012B02D100F03BF82FE01A4B5B78022B02D100F080F928E0174B5B78032B02D100F099FB21E0134B5B78A5
:40080000042B02D100F0BEFA1AE0104B5B78052B02D100F0A3FD13E00C4B5B78062B02D100F05AFC0CE0094B5B78102B02D100F0D3FC05E0054B5B780F2B01D100F016FEF4
:40084000034B00221A70BD4680BDC046D40200200D01002090B587B000AF0023FB600023BB6000237B603B1C173300221A70FB1C00221A703B1C163300221A703B1C123337
:4008800000221A70964B9B78FB60FB681B02FB60934BDB78FA681343FB60914B1B79BB60BB681B02BB608E4B5B79BA681343BB608C4B02221A708B4B01225A70BB68DA08AB
:4008C0003B1C17331A70BB68D9B2FB1C07220A401A70FB1C1B78002B06D03B1C17333A1C1732127801321A707E4B3A1C173212789A703B1C1233FA681A703B1C1333032293
:400900001A703B1C15333A1C173212781A709CE03B1C15331B78012B47D93B1C143300221A7035E03B1C12331B786F4AD35C002B04D03B1C163301221A7003E03B1C16339C
:4009400000221A703B1C13331B783A1C1332127864498A5CD1B23A1C163210783A1C14321278041C9440221CD2B24A40D2B2D1B25C4AD1543B1C12331A783B1C1233013205
:400980001A703B1C14331A783B1C143301321A703B1C14331B78082BC4D13B1C13331A783B1C133301321A7048E03B1C143300221A7035E03B1C12331B784B4AD35C002BFB
:4009C00004D03B1C163301221A7003E03B1C163300221A703B1C13331B783A1C1332127840498A5CD1B23A1C163210783A1C14321278041C9440221CD2B24A40D2B2D1B2CD
:400A0000384AD1543B1C12331A783B1C123301321A703B1C14331A783B1C143301321A703A1C1432FB1C12781B789A42C2D13B1C13331A783B1C133301321A703B1C153396
:400A40001A783B1C1533013A1A703B1C15331B78002B00D05CE73B1C13331B780233DBB2181C00F035FE031C7B603B1C13331B787A68120AD1B21B4AD1543B1C13331B7862
:400A800001337A68D1B2174AD154012001F074FF3B1C153300221A700EE03B1C15331B78104AD35C181C01F019FE3B1C15331A783B1C153301321A703B1C15331A783B1C4D
:400AC00013331B7803339A42E7D13B1C13331B780333181C00F0B2FEBD4607B090BDC046D402002058010020D801002090B587B000AF0023FB600023BB6000237B603B1C68
:400B0000173300221A70FB1C00221A703B1C163300221A703B1C123300221A70964B9B78FB60FB681B02FB60934BDB78FA681343FB60914B1B79BB60BB681B02BB608E4B3B
:400B40005B79BA681343BB608C4B02221A708B4B02225A70BB68DA083B1C17331A70BB68D9B2FB1C07220A401A70FB1C1B78002B06D03B1C17333A1C1732127801321A70A1
:400B80007E4B3A1C173212789A703B1C1233FA681A703B1C133303221A703B1C15333A1C173212781A709CE03B1C15331B78012B47D93B1C143300221A7035E03B1C12331E
:400BC0001B786F4AD35C002B04D03B1C163301221A7003E03B1C163300221A703B1C13331B783A1C1332127864498A5CD1B23A1C163210783A1C14321278041C9440221C16
:400C0000D2B24A40D2B2D1B25C4AD1543B1C12331A783B1C123301321A703B1C14331A783B1C143301321A703B1C14331B78082BC4D13B1C13331A783B1C133301321A7040
:400C400048E03B1C143300221A7035E03B1C12331B784B4AD35C002B04D03B1C163301221A7003E03B1C163300221A703B1C13331B783A1C1332127840498A5CD1B23A1CE2
:400C8000163210783A1C14321278041C9440221CD2B24A40D2B2D1B2384AD1543B1C12331A783B1C123301321A703B1C14331A783B1C143301321A703A1C1432FB1C127801
:400CC0001B789A42C2D13B1C13331A783B1C133301321A703B1C15331A783B1C1533013A1A703B1C15331B78002B00D05CE73B1C13331B780233DBB2181C00F0E9FC031C4A
:400D00007B603B1C13331B787A68120AD1B21B4AD1543B1C13331B7801337A68D1B2174AD154012001F028FE3B1C153300221A700EE03B1C15331B78104AD35C181C01F0FD
:400D4000CDFC3B1C15331A783B1C153301321A703B1C15331A783B1C13331B7803339A42E7D13B1C13331B780333181C00F066FDBD4607B090BDC046D40200205801002089
:400D8000D801002080B586B000AF0023FB600023BB603B1C173303221A7000237B6000233B615F4B9B78FB60FB681B02FB605C4BDB78FA681343FB60594B1B79BB60BB68E1
:400DC0001B02BB60564B5B79BA681343BB60554B02221A70534B04225A70BB68DBB2DB18DAB2504B9A70FB683B614AE04E4B3A699200D358FF2B23D93B1C17331B784A4AF3
:400E0000396989008A58120AD1B2464AD1543B1C17331A783B1C173301321A703B1C17331B78414A396989008A58D1B23D4AD1543B1C17331A783B1C173301321A701DE037
:400E40003B1C17331B78374A0021D1543B1C17331A783B1C173301321A703B1C17331B78314A396989008A58D1B22E4AD1543B1C17331A783B1C173301321A703B690133A1
:400E80003B61FA68BB68D2183B699A42AED83B1C17331B780233DBB2181C00F019FC031C7B603B1C17331B787A68120AD1B21D4AD1543B1C17331A783B1C173301321A7026
:400EC0003B1C17331B787A68D1B2164AD1543B1C17333A1C1732127802321A70012001F04BFD00233B6109E00E4A3B69D3181B78181C01F0F3FB3B6901333B613B1C1733A8
:400F00001A783B699A42EFD1092000F097FC00233B613B1C173300221A70BD4606B080BDD4020020580100200C02002080B586B000AF0023FB600023BB603B1C17330322F8
:400F40001A7000237B6000233B61604B9B78FB60FB681B02FB605D4BDB78FA681343FB605A4B1B79BB60BB681B02BB60574B5B79BA681343BB60564B02221A70544B03225D
:400F80005A70BB68DBB2DB18DAB2514B9A70FB683B614AE04F4B3A699200D358FF2B23D93B1C17331B784B4A396989008A58120AD1B2474AD1543B1C17331A783B1C17334A
:400FC00001321A703B1C17331B78424A396989008A58D1B23E4AD1543B1C17331A783B1C173301321A701DE03B1C17331B78384A0021D1543B1C17331A783B1C17330132A6
:401000001A703B1C17331B78324A396989008A58D1B22F4AD1543B1C17331A783B1C173301321A703B6901333B61FA68BB68D2183B699A42AED83B1C17331B780233DBB2D8
:40104000181C00F045FB031C7B603B1C17331B787A68120AD1B21E4AD1543B1C17331A783B1C173301321A703B1C17331B787A68D1B2174AD1543B1C17333A1C1732127856
:4010800002321A70012001F077FC00233B6109E00F4A3B69D3181B78181C01F01FFB3B6901333B613B1C17331A783B699A42EFD13B1C17331B78181C00F0C0FB3B1C1733F0
:4010C00000221A70BD4606B080BDC046D4020020580100200C02002080B588B000AF0023BB6100237B6100233B610023FB600023BB6000237B6000233B600023FB61334B1D
:401100009B783B613B691B023B61304BDB783A6913433B612D4BDB78BB612C4B9B787B612A4B1B79FB60FB681B02FB60274B5B79FA681343FB60254B5B79BB60234B1B79FA
:401140007B60234B3A699200F968D150214B02221A70204B06225A70BB69DAB21D4BDA707B69DAB21B4B9A707B68DAB2194B1A71BB68DAB2174B5A71082000F0A9FA031CA2
:401180003B603B681B0ADAB2124B9A713B68DAB2104BDA71012001F0EFFB0023FB6109E00C4AFB69D3181B78181C01F097FAFB690133FB61FB69092BF2D1092000F03EFB10
:4011C0000023FB61BD4608B080BDC046D40200200C0200205801002080B58CB000AF00237B6200233B620023FB610023BB6100237B6100233B610023FB600023BB6000239A
:401200007B603B1C2F3300221A7000233B600023BB624F4B9B787B627B6A1B027B624C4BDB787A6A13437B62494B9B783B62484BDB78FB61464B1B79BB61BB691B02BB61E2
:40124000434B5B79BA691343BB61414B1B797B613F4B5B793B613E4B9B79FB603B1C2F3307221A70FB685B08BB600023BB6228E03B1C2F331B78364AD35C7B607B681B021E
:401280007B603B1C2F331A783B1C2F3301321A703B1C2F331B782E4AD35C7A6813437B603B1C2F331A783B1C2F3301321A707A6ABB6AD218274B92007968D150BB6A013379
:4012C000BB62BA6ABB689A42D2D3234B02221A70214B10225A703B6ADAB21F4B9A70FB69DAB21D4BDA707B69DAB21B4B1A713B69DAB2194B5A71082000F0EAF9031C3B60C9
:401300003B681B0ADAB2144B9A713B68DAB2124BDA71012001F030FB0023BB6209E00E4ABB6AD3181B78181C01F0D8F9BB6A0133BB62BB6A092BF2D1092000F07FFA00237A
:40134000BB623B1C2F3300221A70BD460CB080BDD40200200C0200205801002080B588B000AF0023BB6100237B6100233B610023FB600023BB6000237B600023FB610023DD
:401380003B60374B9B783B613B691B023B61344BDB783A6913433B61314BDB78BB61304B9B787B612E4B1B79FB60FB681B02FB602B4B5B79FA681343FB60294B5B79BB6045
:4013C000274B1B797B60FB68002B05D0254A3B69D318FF221A7004E0224A3B69D31800221A70214B02221A701F4B05225A70BB69DAB21D4BDA707B69DAB21B4B9A707B68DB
:40140000DAB2194B1A71BB68DAB2174B5A71082000F05EF9031C3B603B681B0ADAB2124B9A713B68DAB2104BDA71012001F0A4FA0023FB6109E00C4AFB69D3181B78181C17
:4014400001F04CF9FB690133FB61FB69092BF2D10A2000F0F3F90023FB61BD4608B080BDD4020020D80100205801002080B58AB000AF0023FB610023BB6100237B61002304
:401480003B610023FB600023BB6000237B603B1C273300221A70FB1C00221A703B1C243300221A70874B9B78FB61864B9B78BB61FB691B02FB61834BDB78FA691343FB6108
:4014C000804BDB787B617F4B1B793B617D4B1B79FB603B691B023B617A4B5B793A6913433B61784B5B79BB60774B02221A70764B0F225A703B69DA083B1C27331A703B6973
:40150000D9B2FB1C07220A401A70FB1C1B78002B06D03B1C27333A1C2732127801321A70BB69DAB2684B9A707B69DAB2664BDA70FB68DAB2644B1A71BB68DAB2624B5A7192
:401540003B1C2433FA691A703B1C233307221A703B1C26333A1C273212781A7078E03B1C23331A78BB1C57498A5C1A703B1C23331A783B1C233301321A703B1C26331B7893
:40158000012B2ED93B1C253300221A7023E0BB1C1A783B1C25331B781A410123134006D03B1C24331B78494A0121D15405E03B1C24331B78454A0021D1543B1C24331A78F1
:4015C0003B1C243301321A703B1C25331A783B1C253301321A703B1C25331B78082BD6D12FE03B1C253300221A7023E0BB1C1A783B1C25331B781A410123134006D03B1CA0
:4016000024331B78314A0121D15405E03B1C24331B782E4A0021D1543B1C24331A783B1C243301321A703B1C25331A783B1C253301321A703A1C2532FB1C12781B789A4205
:40164000D4D13B1C26331A783B1C2633013A1A703B1C26331B78002B00D080E7082000F037F8031C7B607B681B0ADAB2164B9A717B68DAB2144BDA71012001F07DF93B1C30
:40168000263300221A700EE03B1C26331B780E4AD35C181C01F022F83B1C26331A783B1C263301321A703B1C26331B78092BEBD10A2000F0C3F83B1C263300221A70BD4618
:4016C0000AB080BDD402002058010020D801002080B588B000AF021CFB1D1A70244BFB6100233B610023FB6000237B610023BB6121E0204ABB69D3181B78FA695340FB610A
:4017000008237B6111E0FA690123134007D0FB695B08FB61FB69184A5340FB6102E0FB695B08FB617B69013B7B617B69002BEAD1BB690133BB61FB1D1B789A1EBB699A4286
:40174000D7DCFB691B021B041B0C3B61FA69FF231B0213401B0AFB603A69FB6813433B613B69FB61FB69181CBD4608B080BDC046FFFF00005801002001A0000080B586B0CD
:4017800000AF2A4B7B610023BB6000237B600023FB6000233B6121E0254A3B69D3181B787A6953407B610823FB6011E07A690123134007D07B695B087B617B691D4A534023
:4017C0007B6102E07B695B087B61FB68013BFB60FB68002BEAD13B6901333B61164B1B78DBB29A1E3B699A42D6DC7A69FF231340BB607A69FF231B0213401B0A7B600C4AA8
:401800003B69D3181B781A1CBB689A4209D13B690133074AD35C1A1C7B689A4201D1012300E00023181CBD4606B080BDFFFF0000D402002001A000000701002080B582B0E3
:4018400000AF78600A4B181C00217D2202F012FB7B68DBB20B33DAB2064B1A7000F06CFE054B181C01F020F8BD4602B080BDC046580100200E010020A105000080B58CB0E6
:4018800000AF0023FB620023BB6200237B6200233B623B1C1D3300221A703B1C00221A6000229A80C24BFE2292051A60C04BFE2292055A60BE4BFE2292059A6002200221BE
:4018C00000F078F93B1C1D333A1C1D32127801321A703B1C1D331B785BB2012B08D10020192100F067F90120202100F063F90DE03B1C1D331B785BB2022B07D100201A21BC
:4019000000F058F90120202100F054F90220012100F050F90F2000F0A3FD3B1C1E200321062200F053FB3B1C1E3300221A80DCE00220012100F03EF90F2000F091FD3B1CDD
:401940001E200321062200F041FB3B1C1B781B0299B23B1C5B781A1C3B1C1A330A431A803B1C9B781B0299B23B1CDB781A1C3B1C18330A431A803B1C1B791B0299B23B1C8F
:401980005B791A1C3B1C16330A431A803B1C1A3300229B5E181C02F07DF9021C844B1B68101C191C01F072FF031C3B613B1C163300229B5E181C02F06DF9021C7C4B5B685E
:4019C000101C191C01F062FF031CFB603B1C183300229B5E181C02F05DF9021C744B9B68101C191C01F052FF031CBB603869002101F038FF031C002B09D03869F96A01F0C2
:401A000031FF031C002B02D03B69FB6216E03869002101F013FF031C002B0FD03B69802212065340181CF96A01F01CFF031C002B04D03B69802212065340FB62F8680021F4
:401A400001F010FF031C002B09D0F868B96A01F009FF031C002B02D0FB68BB6216E0F868002101F0EBFE031C002B0FD0FB68802212065340181CB96A01F0F4FE031C002B7D
:401A800004D0FB68802212065340BB62B868002101F0E8FE031C002B09D0B868796A01F0E1FE031C002B02D0BB687B6216E0B868002101F0C3FE031C002B0FD0BB68802284
:401AC00012065340181C796A01F0CCFE031C002B04D0BB688022120653407B623B1C1E331A883B1C1E3301321A803B1C1E3300229B5E312B00DC1BE73B1C1D331B785BB2FB
:401B0000012B00DCDEE6F86A396A01F0ABFE031C002B01D0FB6A3B62B86A396A01F0A2FE031C002B01D0BB6A3B62786A396A01F099FE031C002B01D07B6A3B621C4BFA6A75
:401B4000DA601B4BBA6A1A61194B7A6A5A61F86A002101F06DFE031C002B07D1386AF96A01F094FE031C1A1C114B1A60B86A002101F05EFE031C002B07D1386AB96A01F007
:401B800085FE031C1A1C0A4B5A60786A002101F04FFE031C002B07D1386A796A01F076FE031C1A1C024B9A60BD460CB080BDC0466003002080B582B000AF0A1CFB1D011C5F
:401BC0001970BB1D1A70FB1D1A78BB1D1B781E20111C1A1C00F054FABD4602B080BDC04680B584B000AFBB1D18803B1D1980BB1C1A800023BB603B1C0F3301221A7031E08F
:401C00003B1C0F331B785A1E3B1C0F3319785A4B4900C95A584B5200D1523B1C0F331B785A1E3B1C0F331978534B0B314900C95A514B0B325200D1523B1C0F331B785A1EA7
:401C40003B1C0F3319784C4B16314900C95A4A4B16325200D1523B1C0F331A783B1C0F3301321A703B1C0F331B78092BC8D9424BBA1D12885A82404B3A1D12881A853E4B9E
:401C8000BA1C1288DA870023BB603B1C0F3300221A7010E03B1C0F331A78374B5200D35A1BB2BA68D318BB603B1C0F331A783B1C0F3301321A703B1C0F331B78092BE9D91C
:401CC000BB68181C0A2101F045FD031C9AB22A4B9A820023BB603B1C0F3300221A7011E03B1C0F331A78244B0B325200D35A1BB2BA68D318BB603B1C0F331A783B1C0F33B0
:401D000001321A703B1C0F331B78092BE8D9BB68181C0A2101F01EFD031C9AB2164B5A850023BB603B1C0F3300221A7011E03B1C0F331A78104B16325200D35A1BB2BA68DC
:401D4000D318BB603B1C0F331A783B1C0F3301321A703B1C0F331B78092BE8D9BB68181C0A2101F0F7FC031C99B2034A4023D152BD4604B080BDC0467803002080B586B018
:401D800000AFF860B9607A603B1C103300225A713B1C10335A793B1C10331A713B1C10331A793B1C1033DA703B1C1033DA783B1C10339A703B1C10339A783B1C10335A705F
:401DC0003B1C10335A783B1C10331A703B1C10331E200321062200F0F9F83B1C10331B781B029AB23B1C10335B78134399B23B1C10331B791B029AB23B1C10335B7913434F
:401E00009AB23B1C10339B781B0298B23B1C1033DB7803439BB209B212B21BB2081C111C1A1CFFF7DDFE084B9A8AFB681A80064B5A8DBB681A80044A4023D25A7B681A805B
:401E4000BD4606B080BDC0467803002080B582B000AF021CFB1D1A70FB1D1B78022B00D908E0FB1D1B780220191CFFF7A3FE642000F01AFBBD4602B080BDC04680B582B0DB
:401E800000AF021CFB1D1A70FB1D1B78062B00D907E0FB1D1B789B00DBB20020191CFFF789FEBD4602B080BD80B582B000AF021CFB1D1A70FB1D1B78002B02D00020FFF7EC
:401EC000C5FF00207021FFF775FE0120A021FFF771FE02200021FFF76DFEBD4602B080BD80B582B000AFFB1D00221A7011E0391C3B1C9A1C3B1C0433081C111C1A1CFFF7EF
:401F00003DFFC82000F0D0FAFB1D1A78FB1D01321A70FB1D1B78312BE9D9BD4602B080BD90B585B000AF7860391C0E313A1C0C323B1C0A33081C111C1A1CFFF71FFF3B1CDA
:401F40000E331B881BB2181C01F0A4FE021C144B1A60134B1A687B681A607B681C1D3B1C0C331B881BB2181C01F094FE021C0D4B1A600C4B1B6823607B681C1C08343B1CE1
:401F80000A331B881BB2181C01F084FE021C064B1A60054B1B682360BD4605B090BDC046580300205C0300205403002080B500AF0020FFF779FF0020FFF748FF0620FFF727
:401FC0005DFFFFF78DFFBD4680BDC04690B585B000AF3B60FB1D1870BB1D19707B1D1A703B1C0F3300221A70FB1D1B78181C002100F07EFEBB1D1B78181C00F0E3FFFB1D9C
:402000001B78181C012100F0FBFE3B1C0F3300221A7025E03B1C0F331A787B1D1B78013B9A420BD03B1C0F331B783A68D418002001F02EF8031CDBB223700AE03B1C0F3388
:402040001B783A68D418012001F022F8031CDBB223703B1C0F331A783B1C0F3301321A703A1C0F327B1D12781B789A42D2D300F04BFF3B1C0F331B78181CBD4605B090BDE7
:4020800080B582B000AFFB1D1870BB1D19707B1D1A70FB1D1978BB1D1A787B1D081C111C012200F005F8031C181CBD4602B080BD80B584B000AF3B60FB1D1870BB1D1970E2
:4020C0007B1D1A703B1C0F3300221A70FB1D1B78181C002100F00CFEBB1D1B78181C00F071FF3B1C0F3300221A700FE03B1C0F331B783A68D3181B78181C00F063FF3B1C23
:402100000F331A783B1C0F3301321A703A1C0F327B1D12781B789A42E8D300F0F5FE0123181CBD4604B080BD80B500AFFEE7C04680B586B000AF224B7B61224B3B61204BBD
:402140007B6135E03B691B68FB603B695B68BB603B699B683B6000237B600CE0FB681A68BB681A60BB680433BB60FB680433FB607B6804337B607A683B689A42EED13B6999
:40218000DB683B6000237B6008E0BB6800221A60BB680433BB607B6804337B607A683B689A42F2D13B6910333B617B69013B7B617B69002BC6D101F037FEFEF7E1F8FEE710
:4021C00001000000803F000080B582B000AF00237B600FE07B68032B04D8104B7A689200D35800E00E4B0F4A796889008B507B6801337B607B682F2BECD9FDF7C9FF0A4B59
:4022000000221A608023DB058022D205126801210A431A60BD4602B080BDC046000000002921000000000020C000002080B582B000AF786039607A683B68101C00211A1CD2
:4022400001F018FEBD4602B080BDC04680B586B000AF7860396000233B6100237B612EE07B699B007A68D3181B68BB603B1C0F33BA681A70BB68FF229343BB6017E03B6909
:402280005B003A68D3181B781A1CBB68D3183A69520039688A1852781A703B6901333B613B1C0F331A783B1C0F33013A1A703B1C0F331B78002BE2D17B6901337B617B69F4
:4022C000042BCDD9BD4606B080BDC04680B500AFBD4680BD000000000230800804D0C0460138FDD1C046C046C0467047EFF3108072B6704780F310887047C046C046C04660
:4023000080B584B000AF021C3960FB1D1A7080239B05FB60FB1D1B781F2B02D9002000F095F8FB1D1B7810339B00FA68D3181B68BB60FB1D1B7810339B00FA68D3183A6835
:402340001A60BB68181CBD4604B080BD90B587B000AF0A1CFB1D011C1970BB1D1A70BB1D1B78032B02D9002000F070F8FB1D1B781F2B02D9002000F069F8FB1D1A7803232A
:402380001340DB0006337B613C1C1334FFF7AEFF031C2370FB1D1B789B08DBB29B0014495B181B68FB607B690322111C99400B1CDA43FB681340FB60BB1D1A787B69111CE3
:4023C00099400B1CFA681343FB60FB1D1B789B08DBB29B00064A9B18FA681A603B1C13331B78181CFFF786FFBD4607B090BDC04600E400E080B582B000AF021CFB1D1A70EF
:40240000064BFA1D11781F220A400121081C9040021C1A60BD4602B080BDC04600E100E080B582B000AF021CFB1D1A70064BFA1D11781F220A400121081C9040021C1A60B9
:40244000BD4602B080BDC04680E100E080B582B000AF021CFB1D1A7001BEBD4602B080BD80B582B000AF786008E00C4B1B68181CFFF732FF7B680A4A9B187B607A68802347
:402480001B029A42F1D8074B1B687A685343181CFFF722FFBD4602B080BDC046E00000200080FFFFD800002080B582B000AF021CBB1D1A80BB1D1B88044A12785343181C91
:4024C000FFF70AFFBD4602B080BDC046DC00002080B500AF084B812292041A60074B0C221A60012000F08CF8142000F05DF8002000F04CF8BD4680BD0001054024010540B3
:4025000090B583B000AFFC1DFFF7F0FE031C2370084B084A126801210A431A60FB1D1B78181CFFF7E7FE0120182100F04BF8BD4603B090BD0000054080B500AF064B1B7866
:40254000002B04D1FFF7C4FF034B01221A70FFF7D7FFBD4680BDC0460F01002090B583B000AFFC1DFFF7C2FE031C2370064B064A126801218A431A60FB1D1B78181CFFF764
:40258000B9FEBD4603B090BD0000054080B582B000AF7860034B7A681204120C1A60BD4602B080BD0801054080B582B000AF7860034B7A681204120C1A60BD4602B080BD52
:4025C0001401054090B585B000AF786039603C1C0F34FFF78BFE031C2370084B3A687968081C9040021C1A603B1C0F331B78181CFFF780FEBD4605B090BDC046080005408D
:4026000080B582B000AF7860024B7A681A60BD4602B080BD3801054080B500AF024B1B68181CBD4680BDC0463001054080B582B000AF7860024B7A681A60BD4602B080BD66
:402640003001054080B500AF00F05EF8BD4680BD80B500AF054B054A1268802109060A431A6000F017F8BD4680BDC0460000074080B500AF064B1B78002B04D1FFF7E2FFDB
:40268000034B01221A70FFF7E3FFBD4680BDC0461001002080B500AFBD4680BD80B582B000AF00237B60044B1B687B607B68181CBD4602B080BDC0464003074080B582B0EB
:4026C00000AF054B1A680F2313407B607B68181CBD4602B080BDC0460803074080B582B000AF7860C046064B1A680F231340082BF9D0044B7A681A60BD4602B080BDC046AD
:40270000080207404002074080B500AF174B184A1A60184B00221A60174B01221A60174B174A1A60174B07221A60174B00221A60164B01221A60164B164A1A60164B0022A3
:402740001A60164B00221A60154B00221A60154B00221A60144B00221A60144B04221A60134B00221A60BD4680BDC046000007400F000002400007404800074000030740F8
:4027800007020080040307401003074044000740000207400700008004020740880E0740C80E0740480F0740080F0740C80F0740880F074080B582B000AF00237B60FFF744
:4027C0007DFF031C002B03D0FFF768FF031C7B60084B1A68D8239B00134005D000237B60044BD82292001A607B68181CBD4602B080BDC046C00F074080B582B000AF7860F0
:4028000000F048F87B68181C00F008F8002000F011F800F035F8BD4602B080BD80B582B000AF7860024B7A68DA66BD4602B080BD0000002090B585B000AF021CFB1D1A70E1
:402840001E23FB603C1C0B34FFF750FD031C23700A4B0A4A126892009108FA1D1078FA68041C9440221C0A431A603B1C0B331B78181CFFF73FFDBD4605B090BD08E400E089
:4028800080B500AF024B802212011A60BD4680BD00E100E080B500AF024B802212011A60BD4680BD80E100E080B582B000AF786000F058F87B68181C00F014F8002000F085
:4028C0001FF800F045F8BD4602B080BD80B500AF00F048F8024B181C00F004F8BD4680BD2921000080B582B000AF7860034A80237968D150BD4602B080BDC046000000209F
:4029000090B585B000AF021CFB1D1A700623FB603C1C0B34FFF7EAFC031C23700B4B0B4A1268C021101C8843011CFA1D1078FA68041C9440221C0A431A603B1C0B331B78C9
:40294000181CFFF7D7FCBD4605B090BD10E400E080B500AF024B802252021A60BD4680BD00E100E080B500AF024B802252021A60BD4680BD80E100E080B584B000AF021C87
:40298000FB1D1A700D4B1B68DAB23B1C0F3301218A431A70FB1D1A7801231340D9B23B1C0F333A1C0F3212780A431A70034B3A1C0F3212781A60BD4604B080BD000204409C
:4029C00090B583B000AF312000F05CF8312000F073F8FC1DFFF78AFC031C23700A4B0A4A1278D2B210210A43D2B21A70FB1D1B78181CFFF77FFC00F06FF8012000F028F80D
:402A0000BD4603B090BDC04690000F4080B500AF054B054A1278D2B2802149420A43D2B21A70BD4680BDC04670000F4080B500AF064B1B78002B04D1FFF7C2FF034B0122A1
:402A40001A70FFF7E3FFBD4680BDC0461801002080B582B000AF021CFB1D1A70034BFA1D12781A70BD4602B080BDC04680000F4080B500AF024B1B78DBB2181CBD4680BD9A
:402A800060000F4080B582B000AF021CFB1D1A70034BFA1D12781A70BD4602B080BDC04620000F4080B500AF024B1B78DBB2181CBD4680BD40000F4080B582B000AF021C29
:402AC000FB1D1A70034BFA1D12781A70BD4602B080BDC04600000F4080B500AF01E0FFF7E1FFFFF7C5FF031C1A1C08231340F6D1BD4680BD80B582B000AF786000F04AF825
:402B00007B68181C00F008F8032000F011F800F037F8BD4602B080BD80B582B000AF7860024B7A681A64BD4602B080BD0000002090B585B000AF021CFB1D1A700623FB6047
:402B40003C1C0B34FFF7D2FB031C23700B4B0B4A1268C021101C8843011CFA1D1078FA68041C9440221C0A431A603B1C0B331B78181CFFF7BFFBBD4605B090BD00E400E060
:402B800080B500AF024B01221A60BD4680BDC04600E100E080B500AF024B01221A60BD4680BDC04680E100E080B500AF00F02CF8BD4680BD80B500AF054B054A1268802115
:402BC00009060A431A6000F017F8BD4680BDC0460000064080B500AF064B1B78002B04D1FFF7E2FF034B01221A70FFF7E3FFBD4680BDC0461C01002080B500AF0A20FFF77B
:402C0000F9FBBD4680BDC04680B500AF234B234A12680C210A431A60214B00221A60214B214A1A60214B224A1A60224B00221A60214B00221A60214B1D4A1A60204B002297
:402C40001A600A20FFF7ECFB0A200321FFF77EFB1C4B0A20191CFFF753FB1B4B00221A601A4B00221A601A4B00221A60194B1422FF321A60184B00221A60184B00221A60C5
:402C8000174B10221A70174B00221A80164B00221A60164B00221A60BD4680BD7000064000000640600006407708008000030640070100800403064010030640000206403E
:402CC0000402064069320000C80E0640880E0640480F0640080F0640C80F0640880F0640BA030020D6030020C0030020C403002080B584B000AF786039600023FB60042333
:402D0000BB60384B1B78DBB2102B66D1364B1A680123134002D00823BB605EE00A20FFF77FFB7B685A00FF2313407B603B68002B03D12C4B24221A7006E02A4B25221A7057
:402D40007B68012213437B60284B7A681A60284B284A1A60284B02221A60C046244B1A680823FF331340F9D0214B1A680423134002D00023BB601CE01D4B1A680223134097
:402D800002D00223BB6014E0194B1A680123134007D0144B10221A700123BB600123FB6007E0104B10221A7080235B00BB600123FB600F4B0822FF321A60FB68002B0CD0D1
:402DC0000E4B0E4A1268520052081A600B4B0B4A1268802109060A431A60BB68181CBD4604B080BDBA0300206400064040020640000F064017030000680006400000064029
:402E000080B584B000AF786039600023FB600423BB60374B1B78DAB220231340DBB2002B60D07B685A00FF2313407B603B68002B03D12F4B24221A7006E02D4B25221A7082
:402E40007B68012213437B602A4B2B4A1A6000F073F9C046294B1A6801231340FAD1284B7A681A60C046234B1A680823FF331340F9D0204B1A680423134002D00023BB6068
:402E80001CE01C4B1A680223134002D00223BB6014E0184B1A680123134007D0144B10221A700123BB600123FB6007E0104B10221A7080235B00BB600123FB600D4B08228B
:402EC000FF321A60FB68002B0CD00E4B0D4A1268520052081A600B4B0A4A1268802109060A431A60BB68181CBD4604B080BDC046BA030020000F0640170300006800064087
:402F0000400206400000064080B582B000AF00237B6004233B60264B1B78DAB220231340DBB2002B3ED0234B234A116820220A4001D0182200E010221A60C0461F4B1A6898
:402F40001223FF331340F9D01C4B1A681023134002D000233B600EE0184B1A680123134004D001233B6001237B6004E080235B003B6001237B60114B1222FF321A600C4BE5
:402F800010221A707B68002B0CD00D4B0C4A1268520052081A600A4B094A1268802109060A431A603B68181CBD4602B080BDC046BA0300206800064064000640000F06402B
:402FC0000000064080B584B000AF78600023FB600423BB602A4B1B78DAB220231340DBB2002B48D0274B7A681A60C046264B1A680823FF331340F9D0234B1A680423134037
:4030000005D01F4B60221A700023BB601FE01E4B1A680223134005D0194B60221A700223BB6014E0184B1A680123134007D0144B10221A700123BB600123FB6007E0104BDE
:4030400010221A7080235B00BB600123FB600E4B0822FF321A60FB68002B0CD00B4B0B4A1268520052081A60084B084A1268802109060A431A60BB68181CBD4604B080BD38
:40308000BA03002040020640000F06400000064080B584B000AF786001235B42FB601F4B1B78DAB220231340DBB2002B31D0C0461B4B1A680423134005D11A4B1A680223E2
:4030C000FF331340F4D0164B1A680423134010D0154B1B68FB60124B04221A607B68002B03D1124B04221A6013E00C4B60221A700FE00C4B0E4A1A600E4B0E4A1268520045
:4031000052081A600B4B0B4A1268802109060A431A60FB68181CBD4604B080BDBA030020C00F0640000F06404003064068000640170300000000064080B582B000AF264B2F
:403140001B687B60C04600F04FF8031C002BFAD0002000F057F8214B204A12680F218A431A601F4B1E4A1268520052081A607A682023134011D0002000F044F80A20FFF743
:4031800093F9012000F03EF8C04600F05FF8031C002BFAD00A20FFF787F9002000F032F80A20FFF781F90F4B01221A600C4B0C4A1268802109060A431A60084B074A1268B4
:4031C0000F218A430E210A431A60012000F01AF8BD4602B080BDC0466400064010000140000006406800064080B500AF044B1A68022313405B08DBB2181CBD4680BDC0463B
:403200000404044080B584B000AF021CFB1D1A700D4B1B68DAB23B1C0F3301218A431A70FB1D1A7801231340D9B23B1C0F333A1C0F3212780A431A70034B3A1C0F32127845
:403240001A60BD4604B080BD0004044080B500AF044B1B68DAB201231340DBB2181CBD4680BDC0460404044080B582B000AF00233B60C34B1B68002B02D0C14B1B689847BC
:40328000C04B1A680123134002D0BF4B00221A60BE4B1B78DAB220231340DBB2002B3CD0BB4B1A6880235B0013400AD0B94B1B889BB2C022920013439AB2B64B1A80012394
:4032C0003B60B34B1A68012313400AD0B14B1B889BB29022920013439AB2AE4B1A8001233B603B68002B18D0A84B1B78DAB201231340DBB2002B01D0012300E00223A54A5E
:40330000128892B291B21A1C0B1C13439BB29AB2A04B1A809D4B00221A709C4B1B78DAB220231340DBB2002B00D1ACE1984B1A68102313401CD0984B10221A60934B1B787E
:40334000DAB201231340DBB2002B01D0012300E00223904A128892B291B21A1C0B1C13439BB29AB28B4B1A80884B10221A70C0E1864B1B78DAB208231340DBB2002B29D092
:40338000834B1A68022313400ED0834B02221A60804B1B889BB28822920013439AB27D4B1A8001233B6015E0784B1B78DAB201231340DBB2002B03D0744B25221A7009E0EF
:4033C000724B24221A70754B1B68002B02D0744B10221A606D4B1B78DAB204231340DBB2002B00D113E1694B1B78DAB201231340DBB2002B5CD06B4B1A680823134034D0DF
:40340000694B1A68694B19680F231940684B1B68CB18D31A7B607B68082B02D908237B600DE07B68002B0AD1624B624A1168624A0A401A6008237B6001233B6011E010E000
:403440005E4B1A685A4B1B68D2185D4B1B68DBB21370574B1B685A1C554B1A607B68013B7B607B68002BEBD11EE04E4B1A680423134019D0514B1A684D4B1B68D218504B21
:403480001B68DBB213704A4B1B685A1C484B1A60474B1A68444B1B689A4203D2494B04221A6001E001233B60474B484A1A60AEE0374B1A680223134032D0374B02221A6069
:4034C000434B1A68434B19680F231940414B186880231B02034001D0012300E00023CB18D21A3B4B1A603A4B1A683B4B1A60294B1B889BB28422920013439AB2254B1A80FD
:40350000364B364A1268802149020A431A60334B324A1168324A0A401A6001233B6076E0304B1A681023134066D015E0284B1A681A4B1B689A420ED22B4B2C4A1168244A7B
:4035400012688A181278D2B21A60214B1B685A1C1F4B1A6000E005E01E4B1A680F231340082BE3D11A4B1A680C4B1B689A4202D10B4B40221A601E4B1E4A1A6047E0C04628
:40358000200100208C0E0640880E0640BA0300200C0F0640D6030020000F0640CC030020880F0640CC0F0640D003002008030640C003002060000640FFFEFFFFBC030020EE
:4035C0004003064068000640C00F0640ED0F0000C803002008020640C403002004020640FFFFFEFF8C0F064040020640D8030020800F0640F30700003F4B1A684023134025
:4036000005D03E4B1A683E4B1A6001233B603B68002B6ED03B4B3B4A11683B4A0A401A603A4B00221A603A4B00221A60394B1B78DAB202231340DBB2002B19D0364B1B78FD
:40364000DAB201231340DBB2002B01D0092300E00A23324A128892B291B21A1C0B1C13439BB29AB22D4B1A802B4B60221A7040E02B4B2C4A116820220A4001D0182200E00C
:4036800010221A6035E0244B1B78DAB210231340DBB2002B2DD1244B234A1268520052081A601D4B10221A70164B164A11681F4A0A401A60134B134A11681D4A0A401A6019
:4036C000124B00221A60124B00221A60194B1A4A1A601A4B1A4A1A601A4B1B4A1A601B4B1B4A1A60104B104A1268802109060A431A60BD4602B080BD8C0F0640C803002066
:40370000C403002060000640FFFEFFFFC80F0640880F0640D4030020BA030020D6030020680006406400064000000640FF5FFFFFFFFCFFFF800F0640ED0F0000C00F064061
:40374000F3070000400F0640FF0F0000000F064017030000002941D010B4041C4C40A44601230022002900D54942002800D5404288422CD301242407A14204D2814202D2F2
:4037800009011B01F8E7E400A14204D2814202D249005B00F8E7884201D3401A1A434C08A04202D3001B5C0822438C08A04202D3001B9C082243CC08A04202D3001BDC0810
:4037C0002243002803D01B0901D00909E3E7101C6446002C00D5404210BC7047002806D003DB0020C043400801E08020000607B4024802A14018029003BDC046190000007D
:403800000029EBD003B5FFF7A7FF0EBC4243891A1847C0467047C0468446081C6146FFE71FB500F0CBF9002801D40021C8421FBD10B500F051F94042013010BD10B500F001
:40384000BDF9002801DB002010BD012010BDC04610B500F0B3F9002801DD002010BD012010BDC04610B500F061F9002801DC002010BD012010BDC04610B500F057F9002843
:4038800001DA002010BD012010BDC046F0B55F4656464D464446F0B446024500C00F85B00F1C760A2D0E804641D0FF2D26D08024240400212643F6007F3D89468B46F90F85
:4038C0007C027800640A000E00918A463CD0FF2834D080231B041C430023E4007F380193009F4346019A7B4049469C4611430F2900D971E0764F89007F58BF46002E3ED13F
:403900000822022391469B46D9E75A46341CC24601920199022937D0032900D1CFE0012900D0ABE053460B400022002632E0002E19D10421012289469346C0E7221C531E9C
:403940009A4102320192CBE701270197002CC7D0201C00F04BFA431F9C4076235B420021181A0191BCE7301C00F040FA7625431F9E406D4200232D1A99469B469FE70C2324
:40398000032199468B469AE7D446012367463B40FF2200267602D205700ADB071043184305B03CBC90469946A246AB46F0BD80260023F603FF22EDE700220026EAE7802054
:4039C000C00306423BD0044239D1061C26437602760A009BFF22DDE7281A039076016401A64239D3361B1A2201230120311C5B007600002901DBB44201D8361B0343013A23
:403A0000002AF3DC741EA641341C1C43039A7F32002A27DD630704D00F232340042B00D00434270103D52B4B039A1C408032FE2A0BDD012361460B40FF220026AAE7064377
:403A40007602760A4346FF22A4E7A40101236746660AD2B23B409DE7039F1B22013F03970023C2E77E23039F5B42DB1B1B2B07DD012361460B40002200268BE7D446C5E795
:403A8000221CDA40039B9E339C40231C5C1EA34113435A0704D00F221A40042A00D004335F0105D5012361460B400122002671E79E01624601231340760A00226AE7802633
:403AC000F60326437602760A5346FF2262E7C0461C3F0000FFFFFFF74A02430270B55C0A550A43004A001B0EC60F120EC90FFF2B05D0FF2A08D0012093420BD070BD0120F7
:403B0000002CFBD1FF2AF6D10120002DF6D101209342F3D1AC42F1D18E4205D0002BEDD1201C441EA041E9E70020E7E74A024302F0B55C0A550A43004A001B0EC60F120EAD
:403B4000C90FFF2B31D0FF2A34D0002B16D1604260418446002A14D0002820D18E4217D1934215DC04DBAC4212D80020AC4212D2704270414042012318430CE0002AEDD170
:403B800094466F426F416046002805D1002FE5D0704201231843F0BD0020002FFBD148424841404201231843F5E7002CCBD002204042F0E7002DC8D0F9E7C0464A024302DB
:403BC000F0B55C0A550A43004A001B0EC60F120EC90FFF2B27D0FF2A29D0002B10D0002A15D194466F426F416046002815D00020002F04D148424841404201231843F0BDA7
:403C0000604260418446002AECD00028F2D18E4211D0704201231843F1E7002FF7D0704201231843EBE70220002CE8D1D3E70220002DE4D1D1E79342EBDC04DBAC42E8D84D
:403C40000020AC42DBD270427041404201231843D5E7C0464302590A4300C20F1B0E00207E2B0DDD9D2B0CDC802000040143952B0ADC9620C31AD9404842002A00D1081C38
:403C80007047034BD018FBE7963B9940F4E7C046FFFFFF7F70B5041E3CD0C60F00D04442201C00F0A3F89E23251C1B1A962B0CDC083884406402640ADBB2321C6402DB0510
:403CC000600AD2071843104370BD992B0ADD0522121A211CD1400A1C011C1B318D40691E8D411543052801DD421F9540164C2C406A0704D00F221540042D00D004346101DC
:403D00000CD59F23181AFF281AD0A401640AC3B2321CD3E7002200230024CFE7E408FF2B04D06402640ADBB2321CC7E7002C04D08020C00304436402640A321CFF23BDE715
:403D4000321CFF230024B9E7FFFFFFFB10B5041E33D000F04BF89E231B1A962B09DC083884406402640ADBB26402DB05600A184310BD992B0ADD0522121A211CD1400A1CAF
:403D8000011C1B318C40611E8C411443052801DD421F9440144A2240610704D00F210C40042C00D0043251010AD59F23181AFF2816D09401640AC3B2D6E700230024D3E7D5
:403DC000D208FF2B03D05402640ADBB2CCE7002A06D08024E40314436402640AFF23C3E7FF230024C0E7C046FFFFFFFB1C2101231B04984201D3000C10391B0A984201D325
:403E0000000A08391B09984201D30009043902A2105C40187047C0460403020201010101000000000000000070B50E4B0E4D0024ED1AAD101E1CAC4204D0A300F358984761
:403E40000134F8E700F08AF8084B094D0024ED1AAD101E1CAC4204D0A300F35898470134F8E770BD683F0000683F0000683F0000703F0000031C8218934202D01970013360
:403E8000FAE77047000000000400000000300F40000400400F40000401000F401D300F4013310F4004400F4002600F40800D12012E0136013E40404545EC4720482349FF39
:403EC0004AFF4BFF4F01501852805401560458045A045B045F016040624064406540668068806A806C806E80090213801940424048024905500251025945634072407380C4
:403F00008740C208C401D001D208D60BD8016E808640DA80E640010110010000D83900008A390000B839000012390000B8390000AE390000B8390000123900008A39000098
:403F40008A390000AE390000123900000A3900000A3900000A390000BE390000F8B5C046F8BC08BC9E46704749030000C9210000F8B5C046F8BC08BC9E46704721030000A6
:403F8000903F0000C800002020000000F80200000000000001000000C0F1FF0F00366E01C05D0000180000000000E02E000000000000000000000000000000000000000088
:403FC00000000000000000000000000000000000000000000000000000000000000000000000000000000000000000000000000000000000000000000000000000000000C1
:404000000000000000000000000000000000000000000000000000000000000000000000000000000000000000000000000000000000000000000000000000000000000080
:404040000000000000000000000000000000000000000000000000000000000000000000000000000000000000000000000000000000000000000000000000000000000040
:404080000000000000000000000000000000000000000000000000000000000000000000000000000000000000000000000000000000000000000000000000000000000000
:0200000490303A
:02000000B0C08E
:0200000490402A
:200000000000000000000000000000000000000000000000000000000000000000000000E0
:0200000490501A
:0C000000000204C81193110104DCC2537B
:0200000490600A
:0100000001FE
:00000001FF