:4000000000100020110000008D1B00008D1B000080B500AF01F0BEFD80B584B000AF021CFB1D1A70204A3B1C0B3312781A701F4A3B1C0A3312781A700423013BFB6018E0ED
:400040001B4B1868391C0B31FA68131C5B009B18C3185B780B70164B1868391C0A31FA68131C5B009B18C3189B780B70FB68013BFB60FB68002B0ADB0D4B1968FA68131CF1
:400080005B009B185B5CFA1D12789A42D8D9094B3A1C0B3212781A60074B3A1C0A3212781A60BD4604B080BDCCF1FF0FCDF1FF0FD40000201CFF0B4020FF0B4080B500AF47
:4000C0001F4B1F4A12688021C9020A431A601820FFF7A2FF1B4B19221A60052001F02CFE194B1A4A1278D2B21A60052001F0E8FE134B134A1168164A0A401A60154B164AF2
:400100001A60164B20221A60154B10221A60154B30221A60144B11221A60144B802212061A60134B134A1A60134B144A1A60144B144A1A60144B154A1A60BD4680BDC04631
:4001400000010B402CFF0B4028FF0B40E5F1FF0FFFFFFBFF04010B4006000080080202400C020240200202403002024008010B40000002400C000080400002400E000080F3
:40018000800002402F00008004000240BF5D008080B582B000AF72B6484B01221A70FB1D00221A7023E0FB1D1A78131C5B009B185B00434A9B183B603B681A785978090279
:4001C0000A43997809040A43DB781B0613431A1C3B6819795B791B020B439BB2101C191C01F056FDFB1D1A78FB1D01321A70FB1D1B78012BD7D9334A334B101C191C01F08E
:4002000057FD324B992212041A60314BEE2212021A60304BEE221A602F4B20221A602F4B2F4A1A602F4B20221A602F4B2F4A1A602F4B03221A602F4BD82212011A602E4BAA
:4002400003221A602D4B24221A602D4B992212041A602C4B992212041A602B4B992212041A602A4B992212041A60294B01221A60284B02221A60284B274A1278D2B202216A
:400280000A43D2B21A70254B244A1278D2B20C218A43D2B204210A43D2B21A701E4B1E4A1278D2B216210A43D2B21A70FFF706FF01F03EFDBD4602B080BDC0461C700F408E
:4002C000544500006045000074450000000001400C0001401000014000000440080004408611030018000440080104403000030008020440080304400004044008040440ED
:4003000000500F4010500F4020500F4030500F402000004000800F4000700F4001700F4010B5064C2378002B07D1054B002B02D0044800E000BF0123237010BDE8000020BA
:40034000000000004C45000008B5084B002B03D00748084900E000BF07480368002B03D0064B002B00D0984708BDC046000000004C450000EC000020C8000020000000006C
:40038000F0B583B000AF664B181C00217D2204F0D5F801F079FE634B181C01F039FF002001F0F6FF02F022F95F4B181C02F0AEF802F048F800237B6062B65C4BFA229200B7
:4003C0001A815A4B6422DA8100F0CAF8FB1C00221A7001F02DFB01F049FB031C1A1C544B1A70534B1B78002B01D001F02BFB514B1B78002B01D000F031FA4D4B1B78002BBB
:4004000000D188E04C494D4A4D4B081C111C1A1C01F07CFB484B1B881BB2181C03F036FE031C0C1C474A13605460444B1B881BB2181C03F02BFE031C0C1C434A1360546029
:400440003F4B1B881BB2181C03F020FE051C0E1C3E4B1B68181C03F057FE031C0C1C281C311C1A1C231C03F019F8031C0C1C384A13605460334B5C681B68181C211C274B81
:40048000254A03F00BF8031C0C1C181C211C02F06FFE031C9BB21A1C2E4B1A602A4B5C681B68181C211C1D4B1B4A02F0F7FF031C0C1C181C211C02F05BFE031C9BB21A1CA4
:4004C000244B5A60224B5C681B68181C211C134B114A02F0E3FF031C0C1C181C211C02F047FE031C9BB21A1C1A4B9A601A4B5C681B68181C211C094B074A02F0CFFF031C90
:400500000C1C181C211C02F033FE031C9BB21A1C104BDA606BE76AE700000000000059404003002011060000710600005C01002018010020310100205A010020580100209F
:40054000B001002088010020B8010020CC000020980100207802002010010020C046C04680B500AF254B1B6A002B0CD1244B254A5A61234B244A9A61214B244ADA61204BDB
:4005800000221A6237E01D4B1B6A181C02F036FF021C1B4B5A61194B5B6A181C02F02EFF021C174B5B69101C191C02F001FE031C1A1C134B9A61114B9B6A181C02F01EFF9B
:4005C000021C0F4B5B69101C191C02F0F1FD031C1A1C0B4BDA61094BDB6A181C02F00EFF021C074B5B69101C191C02F0E1FD031C1A1C034B1A62BD4680BDC0467802002068
:400600005C01002000007A446666663FCDCC4C3E80B582B000AF00F037F8064B01221A70054B1B687B60054B7A681A60BD4602B080BDC046C2010020CC0F0740C00F07404B
:4006400080B582B000AF00F08BF800237B60074B01221A7001F0ECFC031C7B607B68181C01F0F0FCBD4602B080BDC046C101002080B500AF034B01221A7001F005FFBD467C
:4006800080BDC046C001002098B500AF2B4B1B78DBB2002B1FD02A4B1B78DBB21C1C01F095FD031CDAB2274B1A55254B1B78DBB20133DAB2224B1A70234B1B78DBB2013385
:4006C000DAB2214B1A70214B00221A701C4B1B78DAB21F4B1A701F4B1B78DBB2002B2BD0174B1B78DBB21C1C01F070FD031CDAB2144B1A55124B1B78DBB20133DAB2104B0D
:400700001A700F4B1B78DAB2114B1A700B4B01221A70104B00221A7001F01AFC0E4B181C01F0CEFD0D4B1B78DBB20133DAB20B4B1A70064B00221A70BD4698BD28010020C0
:4007400029010020400300202E0100202A0100202B010020D0000020410600002F01002080B500AF334B1B78DBB2002B1CD0314B1B78DBB2013BDAB22E4B1A702D4B1B7854
:40078000DBB2002B0AD101F0F5FB01F0ABFD002001F0FEFD274B00221A7005E001F0D8FB254B181C01F08CFD224B1B78DBB2002B32D1224B1B78DBB2002B2DD0204B1B78CD
:4007C000DAB2204B1B78DBB29A4206D11E4B1B78DBB20133DAB21C4B1A701B4B1B78DBB2052B13D1194B01221A70194B01221A70124B00221A70144B00221A70154B0022A3
:400800001A7001F0B7FB01F06DFD05E001F0A0FB094B181C01F054FD0A4B1B78DAB2084B1A700D4B1B78DBB20133DAB20A4B1A70BD4680BD3201002041060000280100206A
:400840002C0100202B0100202A010020D000002031010020290100202D01002080B500AF224B1B78052B3BD100F0D8FF031C012B36D11E4B5B78012B02D100F03BF82FE014
:400880001A4B5B78022B02D100F080F928E0174B5B78032B02D100F099FB21E0134B5B78042B02D100F0BEFA1AE0104B5B78052B02D100F0A3FD13E00C4B5B78062B02D11D
:4008C00000F05AFC0CE0094B5B78102B02D100F0D3FC05E0054B5B780F2B01D100F016FE034B00221A70BD4680BDC046400300203101002090B587B000AF0023FB600023F9
:40090000BB6000237B603B1C173300221A70FB1C00221A703B1C163300221A703B1C123300221A70964B9B78FB60FB681B02FB60934BDB78FA681343FB60914B1B79BB6001
:40094000BB681B02BB608E4B5B79BA681343BB608C4B05221A708B4B01225A70BB68DA083B1C17331A70BB68D9B2FB1C07220A401A70FB1C1B78002B06D03B1C17333A1CFD
:400980001732127801321A707E4B3A1C173212789A703B1C1233FA681A703B1C133303221A703B1C15333A1C173212781A709CE03B1C15331B78012B47D93B1C14330022CB
:4009C0001A7035E03B1C12331B786F4AD35C002B04D03B1C163301221A7003E03B1C163300221A703B1C13331B783A1C1332127864498A5CD1B23A1C163210783A1C143299
:400A00001278041C9440221CD2B24A40D2B2D1B25C4AD1543B1C12331A783B1C123301321A703B1C14331A783B1C143301321A703B1C14331B78082BC4D13B1C13331A78E0
:400A40003B1C133301321A7048E03B1C143300221A7035E03B1C12331B784B4AD35C002B04D03B1C163301221A7003E03B1C163300221A703B1C13331B783A1C13321278D2
:400A800040498A5CD1B23A1C163210783A1C14321278041C9440221CD2B24A40D2B2D1B2384AD1543B1C12331A783B1C123301321A703B1C14331A783B1C143301321A70F8
:400AC0003A1C1432FB1C12781B789A42C2D13B1C13331A783B1C133301321A703B1C15331A783B1C1533013A1A703B1C15331B78002B00D05CE73B1C13331B780233DBB237
:400B0000181C00F035FE031C7B603B1C13331B787A68120AD1B21B4AD1543B1C13331B7801337A68D1B2174AD154012001F030FC3B1C153300221A700EE03B1C15331B7831
:400B4000104AD35C181C01F0D5FA3B1C15331A783B1C153301321A703B1C15331A783B1C13331B7803339A42E7D13B1C13331B780333181C00F0B2FEBD4607B090BDC046F9
:400B800040030020C40100204402002090B587B000AF0023FB600023BB6000237B603B1C173300221A70FB1C00221A703B1C163300221A703B1C123300221A70964B9B780A
:400BC000FB60FB681B02FB60934BDB78FA681343FB60914B1B79BB60BB681B02BB608E4B5B79BA681343BB608C4B05221A708B4B02225A70BB68DA083B1C17331A70BB68B6
:400C0000D9B2FB1C07220A401A70FB1C1B78002B06D03B1C17333A1C1732127801321A707E4B3A1C173212789A703B1C1233FA681A703B1C133303221A703B1C15333A1C1E
:400C4000173212781A709CE03B1C15331B78012B47D93B1C143300221A7035E03B1C12331B786F4AD35C002B04D03B1C163301221A7003E03B1C163300221A703B1C13338F
:400C80001B783A1C1332127864498A5CD1B23A1C163210783A1C14321278041C9440221CD2B24A40D2B2D1B25C4AD1543B1C12331A783B1C123301321A703B1C14331A7851
:400CC0003B1C143301321A703B1C14331B78082BC4D13B1C13331A783B1C133301321A7048E03B1C143300221A7035E03B1C12331B784B4AD35C002B04D03B1C16330122DB
:400D00001A7003E03B1C163300221A703B1C13331B783A1C1332127840498A5CD1B23A1C163210783A1C14321278041C9440221CD2B24A40D2B2D1B2384AD1543B1C1233DD
:400D40001A783B1C123301321A703B1C14331A783B1C143301321A703A1C1432FB1C12781B789A42C2D13B1C13331A783B1C133301321A703B1C15331A783B1C1533013A2A
:400D80001A703B1C15331B78002B00D05CE73B1C13331B780233DBB2181C00F0E9FC031C7B603B1C13331B787A68120AD1B21B4AD1543B1C13331B7801337A68D1B2174ADF
:400DC000D154012001F0E4FA3B1C153300221A700EE03B1C15331B78104AD35C181C01F089F93B1C15331A783B1C153301321A703B1C15331A783B1C13331B7803339A4243
:400E0000E7D13B1C13331B780333181C00F066FDBD4607B090BDC04640030020C40100204402002080B586B000AF0023FB600023BB603B1C173303221A7000237B6000230B
:400E40003B615F4B9B78FB60FB681B02FB605C4BDB78FA681343FB60594B1B79BB60BB681B02BB60564B5B79BA681343BB60554B05221A70534B04225A70BB68DBB2DB189E
:400E8000DAB2504B9A70FB683B614AE04E4B3A699200D358FF2B23D93B1C17331B784A4A396989008A58120AD1B2464AD1543B1C17331A783B1C173301321A703B1C17335E
:400EC0001B78414A396989008A58D1B23D4AD1543B1C17331A783B1C173301321A701DE03B1C17331B78374A0021D1543B1C17331A783B1C173301321A703B1C17331B784A
:400F0000314A396989008A58D1B22E4AD1543B1C17331A783B1C173301321A703B6901333B61FA68BB68D2183B699A42AED83B1C17331B780233DBB2181C00F019FC031C41
:400F40007B603B1C17331B787A68120AD1B21D4AD1543B1C17331A783B1C173301321A703B1C17331B787A68D1B2164AD1543B1C17333A1C1732127802321A70012001F00C
:400F800007FA00233B6109E00E4A3B69D3181B78181C01F0AFF83B6901333B613B1C17331A783B699A42EFD1092000F097FC00233B613B1C173300221A70BD4606B080BDAD
:400FC00040030020C40100207802002080B586B000AF0023FB600023BB603B1C173303221A7000237B6000233B61604B9B78FB60FB681B02FB605D4BDB78FA681343FB602A
:401000005A4B1B79BB60BB681B02BB60574B5B79BA681343BB60564B05221A70544B03225A70BB68DBB2DB18DAB2514B9A70FB683B614AE04F4B3A699200D358FF2B23D9FA
:401040003B1C17331B784B4A396989008A58120AD1B2474AD1543B1C17331A783B1C173301321A703B1C17331B78424A396989008A58D1B23E4AD1543B1C17331A783B1C2D
:40108000173301321A701DE03B1C17331B78384A0021D1543B1C17331A783B1C173301321A703B1C17331B78324A396989008A58D1B22F4AD1543B1C17331A783B1C1733ED
:4010C00001321A703B6901333B61FA68BB68D2183B699A42AED83B1C17331B780233DBB2181C00F045FB031C7B603B1C17331B787A68120AD1B21E4AD1543B1C17331A7881
:401100003B1C173301321A703B1C17331B787A68D1B2174AD1543B1C17333A1C1732127802321A70012001F033F900233B6109E00F4A3B69D3181B78181C00F0DBFF3B69A7
:4011400001333B613B1C17331A783B699A42EFD13B1C17331B78181C00F0C0FB3B1C173300221A70BD4606B080BDC04640030020C40100207802002080B588B000AF0023AF
:40118000BB6100237B6100233B610023FB600023BB6000237B6000233B600023FB61334B9B783B613B691B023B61304BDB783A6913433B612D4BDB78BB612C4B9B787B6124
:4011C0002A4B1B79FB60FB681B02FB60274B5B79FA681343FB60254B5B79BB60234B1B797B60234B3A699200F968D150214B05221A70204B06225A70BB69DAB21D4BDA701A
:401200007B69DAB21B4B9A707B68DAB2194B1A71BB68DAB2174B5A71082000F0A9FA031C3B603B681B0ADAB2124B9A713B68DAB2104BDA71012001F0ABF80023FB6109E071
:401240000C4AFB69D3181B78181C00F053FFFB690133FB61FB69092BF2D1092000F03EFB0023FB61BD4608B080BDC0464003002078020020C401002080B58CB000AF00237D
:401280007B6200233B620023FB610023BB6100237B6100233B610023FB600023BB6000237B603B1C2F3300221A7000233B600023BB624F4B9B787B627B6A1B027B624C4BF8
:4012C000DB787A6A13437B62494B9B783B62484BDB78FB61464B1B79BB61BB691B02BB61434B5B79BA691343BB61414B1B797B613F4B5B793B613E4B9B79FB603B1C2F33C2
:4013000007221A70FB685B08BB600023BB6228E03B1C2F331B78364AD35C7B607B681B027B603B1C2F331A783B1C2F3301321A703B1C2F331B782E4AD35C7A6813437B6059
:401340003B1C2F331A783B1C2F3301321A707A6ABB6AD218274B92007968D150BB6A0133BB62BA6ABB689A42D2D3234B05221A70214B10225A703B6ADAB21F4B9A70FB69E5
:40138000DAB21D4BDA707B69DAB21B4B1A713B69DAB2194B5A71082000F0EAF9031C3B603B681B0ADAB2144B9A713B68DAB2124BDA71012000F0ECFF0023BB6209E00E4A68
:4013C000BB6AD3181B78181C00F094FEBB6A0133BB62BB6A092BF2D1092000F07FFA0023BB623B1C2F3300221A70BD460CB080BD4003002078020020C401002080B588B080
:4014000000AF0023BB6100237B6100233B610023FB600023BB6000237B600023FB6100233B60374B9B783B613B691B023B61344BDB783A6913433B61314BDB78BB61304BAE
:401440009B787B612E4B1B79FB60FB681B02FB602B4B5B79FA681343FB60294B5B79BB60274B1B797B60FB68002B05D0254A3B69D318FF221A7004E0224A3B69D31800228C
:401480001A70214B05221A701F4B05225A70BB69DAB21D4BDA707B69DAB21B4B9A707B68DAB2194B1A71BB68DAB2174B5A71082000F05EF9031C3B603B681B0ADAB2124BD4
:4014C0009A713B68DAB2104BDA71012000F060FF0023FB6109E00C4AFB69D3181B78181C00F008FEFB690133FB61FB69092BF2D10A2000F0F3F90023FB61BD4608B080BD06
:401500004003002044020020C401002080B58AB000AF0023FB610023BB6100237B6100233B610023FB600023BB6000237B603B1C273300221A70FB1C00221A703B1C2433DB
:4015400000221A70874B9B78FB61864B9B78BB61FB691B02FB61834BDB78FA691343FB61804BDB787B617F4B1B793B617D4B1B79FB603B691B023B617A4B5B793A691343D1
:401580003B61784B5B79BB60774B05221A70764B0F225A703B69DA083B1C27331A703B69D9B2FB1C07220A401A70FB1C1B78002B06D03B1C27333A1C2732127801321A7058
:4015C000BB69DAB2684B9A707B69DAB2664BDA70FB68DAB2644B1A71BB68DAB2624B5A713B1C2433FA691A703B1C233307221A703B1C26333A1C273212781A7078E03B1CA6
:4016000023331A78BB1C57498A5C1A703B1C23331A783B1C233301321A703B1C26331B78012B2ED93B1C253300221A7023E0BB1C1A783B1C25331B781A410123134006D00B
:401640003B1C24331B78494A0121D15405E03B1C24331B78454A0021D1543B1C24331A783B1C243301321A703B1C25331A783B1C253301321A703B1C25331B78082BD6D1E0
:401680002FE03B1C253300221A7023E0BB1C1A783B1C25331B781A410123134006D03B1C24331B78314A0121D15405E03B1C24331B782E4A0021D1543B1C24331A783B1CEC
:4016C000243301321A703B1C25331A783B1C253301321A703A1C2532FB1C12781B789A42D4D13B1C26331A783B1C2633013A1A703B1C26331B78002B00D080E7082000F053
:4017000037F8031C7B607B681B0ADAB2164B9A717B68DAB2144BDA71012000F039FE3B1C263300221A700EE03B1C26331B780E4AD35C181C00F0DEFC3B1C26331A783B1C74
:40174000263301321A703B1C26331B78092BEBD10A2000F0C3F83B1C263300221A70BD460AB080BD40030020C40100204402002080B588B000AF021CFB1D1A70244BFB61A0
:4017800000233B610023FB6000237B610023BB6121E0204ABB69D3181B78FA695340FB6108237B6111E0FA690123134007D0FB695B08FB61FB69184A5340FB6102E0FB6988
:4017C0005B08FB617B69013B7B617B69002BEAD1BB690133BB61FB1D1B789A1EBB699A42D7DCFB691B021B041B0C3B61FA69FF231B0213401B0AFB603A69FB6813433B610A
:401800003B69FB61FB69181CBD4608B080BDC046FFFF0000C401002001A0000080B586B000AF2A4B7B610023BB6000237B600023FB6000233B6121E0254A3B69D3181B7818
:401840007A6953407B610823FB6011E07A690123134007D07B695B087B617B691D4A53407B6102E07B695B087B61FB68013BFB60FB68002BEAD13B6901333B61164B1B78E1
:40188000DBB29A1E3B699A42D6DC7A69FF231340BB607A69FF231B0213401B0A7B600C4A3B69D3181B781A1CBB689A4209D13B690133074AD35C1A1C7B689A4201D10123FF
:4018C00000E00023181CBD4606B080BDFFFF00004003002001A000002B01002080B582B000AF78600A4B181C00217D2202F026FE7B68DBB20B33DAB2064B1A7000F028FBF8
:40190000054B181C00F0DCFCBD4602B080BDC046C4010020320100204106000090B585B000AF3B60FB1D1870BB1D19707B1D1A703B1C0F3300221A70FB1D1B78181C0021B8
:4019400000F0E2FEBB1D1B78181C01F047F8FB1D1B78181C012100F05FFF08E03C68631C3B60002001F0A0F8031CDBB223703B1C0F331B783A1C0F32591C11701A1C7B1D64
:401980001B78013B9A42E9DB012001F08DF8031CDAB23B681A7000F0C3FFBD4605B090BD80B584B000AF3B60FB1D1870BB1D19707B1D1A703B1C0F3300221A70FB1D1B78CC
:4019C000181C002100F0A0FEBB1D1B78181C01F005F806E03B685A1C3A601B78181C00F0FDFF3B1C0F331B783A1C0F32591C11707A1D12789A42EDD800F092FFBD4604B078
:401A000080BDC04680B582B000AFFB1D1870BB1D19707B1D1A70FB1D1978BB1D1A787B1D081C111C0122FFF7BBFFBD4602B080BD80B500AF024B1E221A70BD4680BDC04628
:401A4000B201002080B500AF074B1B78181C00217022FFF7D7FF012000F028F8012000F03BF8BD4680BDC046B201002080B500AF0C4B1A780C4B101C0A210322FFF74EFFA6
:401A8000094B1B78482B09D1074B5B78342B05D1054B9B78332B01D1012300E00023181CBD4680BDB2010020A001002080B582B000AF021CFB1D1A70064B1A78FB1D1B7872
:401AC0005B01DBB2101C01211A1CFFF79BFFBD4602B080BDB201002080B582B000AF021CFB1D1A70074B1A78FB1D1B78101C02211A1CFFF787FF044BFA1D12781A70BD4641
:401B000002B080BDB20100209001002080B584B000AFF860B9607A60194B1A78194B101C03210622FFF7FAFE174B1B78012B06D1134B1B78181C02210122FFF763FF114BF8
:401B40001B781B029AB20F4B5B7813439AB2FB681A800C4B1B791B029AB20A4B5B7913439AB2BB681A80074B9B781B029AB2054BDB7813439AB27B681A80BD4604B080BD3D
:401B8000B2010020A00100209001002080B500AFFEE7C04680B586B000AF224B7B61224B3B61204B7B6135E03B691B68FB603B695B68BB603B699B683B6000237B600CE019
:401BC000FB681A68BB681A60BB680433BB60FB680433FB607B6804337B607A683B689A42EED13B69DB683B6000237B6008E0BB6800221A60BB680433BB607B6804337B6053
:401C00007A683B689A42F2D13B6910333B617B69013B7B617B69002BC6D102F069FCFEF7AFFBFEE7010000008846000080B582B000AF00237B600FE07B68032B04D8104B66
:401C40007A689200D35800E00E4B0F4A796889008B507B6801337B607B682F2BECD9FEF797FA0A4B00221A608023DB058022D205126801210A431A60BD4602B080BDC0462C
:401C8000000000008D1B000000000020C000002080B582B000AF786039607A683B68101C00211A1C02F04AFCBD4602B080BDC04680B586B000AF7860396000233B61002350
:401CC0007B612EE07B699B007A68D3181B68BB603B1C0F33BA681A70BB68FF229343BB6017E03B695B003A68D3181B781A1CBB68D3183A69520039688A1852781A703B690C
:401D000001333B613B1C0F331A783B1C0F33013A1A703B1C0F331B78002BE2D17B6901337B617B69042BCDD9BD4606B080BDC04680B500AFBD4680BD0230800804D0C046DF
:401D40000138FDD1C046C046C0467047EFF3108072B6704780F310887047C046C046C04680B584B000AF021C3960FB1D1A7080239B05FB60FB1D1B781F2B02D9002000F07F
:401D800095F8FB1D1B7810339B00FA68D3181B68BB60FB1D1B7810339B00FA68D3183A681A60BB68181CBD4604B080BD90B587B000AF0A1CFB1D011C1970BB1D1A70BB1D9C
:401DC0001B78032B02D9002000F070F8FB1D1B781F2B02D9002000F069F8FB1D1A7803231340DB0006337B613C1C1334FFF7AEFF031C2370FB1D1B789B08DBB29B001449B4
:401E00005B181B68FB607B690322111C99400B1CDA43FB681340FB60BB1D1A787B69111C99400B1CFA681343FB60FB1D1B789B08DBB29B00064A9B18FA681A603B1C13336D
:401E40001B78181CFFF786FFBD4607B090BDC04600E400E080B582B000AF021CFB1D1A70064BFA1D11781F220A400121081C9040021C1A60BD4602B080BDC04600E100E096
:401E800080B582B000AF021CFB1D1A70064BFA1D11781F220A400121081C9040021C1A60BD4602B080BDC04680E100E080B582B000AF021CFB1D1A7001BEBD4602B080BD62
:401EC00080B582B000AF021CBB1D1A80BB1D1B88044A12785343181CFFF72EFFBD4602B080BDC046E000002080B500AF084B812292041A60074B0C221A60012000F08CF88B
:401F0000142000F05DF8002000F04CF8BD4680BD000105402401054090B583B000AFFC1DFFF714FF031C2370084B084A126801210A431A60FB1D1B78181CFFF70BFF0120E1
:401F4000182100F04BF8BD4603B090BD0000054080B500AF064B1B78002B04D1FFF7C4FF034B01221A70FFF7D7FFBD4680BDC0463301002090B583B000AFFC1DFFF7E6FEB1
:401F8000031C2370064B064A126801218A431A60FB1D1B78181CFFF7DDFEBD4603B090BD0000054080B582B000AF7860034B7A681204120C1A60BD4602B080BD08010540E7
:401FC00080B582B000AF7860034B7A681204120C1A60BD4602B080BD1401054090B585B000AF786039603C1C0F34FFF7AFFE031C2370084B3A687968081C9040021C1A60DD
:402000003B1C0F331B78181CFFF7A4FEBD4605B090BDC0460800054080B582B000AF7860024B7A681A60BD4602B080BD3801054080B500AF024B1B68181CBD4680BDC0461B
:402040003001054080B582B000AF7860024B7A681A60BD4602B080BD3001054080B500AF00F05EF8BD4680BD80B500AF054B054A1268802109060A431A6000F017F8BD460B
:4020800080BDC0460000074080B500AF064B1B78002B04D1FFF7E2FF034B01221A70FFF7E3FFBD4680BDC0463401002080B500AFBD4680BD80B582B000AF00237B60044B02
:4020C0001B687B607B68181CBD4602B080BDC0464003074080B582B000AF054B1A680F2313407B607B68181CBD4602B080BDC0460803074080B582B000AF7860C046064BFB
:402100001A680F231340082BF9D0044B7A681A60BD4602B080BDC046080207404002074080B500AF174B184A1A60184B00221A60174B01221A60174B174A1A60174B072237
:402140001A60174B00221A60164B01221A60164B164A1A60164B00221A60164B00221A60154B00221A60154B00221A60144B00221A60144B04221A60134B00221A60BD46C5
:4021800080BDC046000007400F00000240000740480007400003074007020080040307401003074044000740000207400700008004020740880E0740C80E0740480F0740B3
:4021C000080F0740C80F0740880F074080B582B000AF00237B60FFF77DFF031C002B03D0FFF768FF031C7B60084B1A68D8239B00134005D000237B60044BD82292001A60A5
:402200007B68181CBD4602B080BDC046C00F074080B582B000AF786000F048F87B68181C00F008F8002000F011F800F035F8BD4602B080BD80B582B000AF7860024B7A680F
:40224000DA66BD4602B080BD0000002090B585B000AF021CFB1D1A701E23FB603C1C0B34FFF774FD031C23700A4B0A4A126892009108FA1D1078FA68041C9440221C0A4309
:402280001A603B1C0B331B78181CFFF763FDBD4605B090BD08E400E080B500AF024B802212011A60BD4680BD00E100E080B500AF024B802212011A60BD4680BD80E100E0DF
:4022C00080B582B000AF786000F058F87B68181C00F014F8002000F01FF800F045F8BD4602B080BD80B500AF00F048F8024B181C00F004F8BD4680BD8D1B000080B582B087
:4023000000AF7860034A80237968D150BD4602B080BDC0460000002090B585B000AF021CFB1D1A700623FB603C1C0B34FFF70EFD031C23700B4B0B4A1268C021101C884358
:40234000011CFA1D1078FA68041C9440221C0A431A603B1C0B331B78181CFFF7FBFCBD4605B090BD10E400E080B500AF024B802252021A60BD4680BD00E100E080B500AF9E
:40238000024B802252021A60BD4680BD80E100E080B584B000AF021CFB1D1A700D4B1B68DAB23B1C0F3301218A431A70FB1D1A7801231340D9B23B1C0F333A1C0F32127828
:4023C0000A431A70034B3A1C0F3212781A60BD4604B080BD0002044090B583B000AF312000F05CF8312000F073F8FC1DFFF7AEFC031C23700A4B0A4A1278D2B210210A43DB
:40240000D2B21A70FB1D1B78181CFFF7A3FC00F06FF8012000F028F8BD4603B090BDC04690000F4080B500AF054B054A1278D2B2802149420A43D2B21A70BD4680BDC0464C
:4024400070000F4080B500AF064B1B78002B04D1FFF7C2FF034B01221A70FFF7E3FFBD4680BDC0463C01002080B582B000AF021CFB1D1A70034BFA1D12781A70BD4602B0A4
:4024800080BDC04680000F4080B500AF024B1B78DBB2181CBD4680BD60000F4080B582B000AF021CFB1D1A70034BFA1D12781A70BD4602B080BDC04620000F4080B500AFFC
:4024C000024B1B78DBB2181CBD4680BD40000F4080B582B000AF021CFB1D1A70034BFA1D12781A70BD4602B080BDC04600000F4080B500AF01E0FFF7E1FFFFF7C5FF031C62
:402500001A1C08231340F6D1BD4680BD80B582B000AF786000F04AF87B68181C00F008F8032000F011F800F037F8BD4602B080BD80B582B000AF7860024B7A681A64BD46EE
:4025400002B080BD0000002090B585B000AF021CFB1D1A700623FB603C1C0B34FFF7F6FB031C23700B4B0B4A1268C021101C8843011CFA1D1078FA68041C9440221C0A4315
:402580001A603B1C0B331B78181CFFF7E3FBBD4605B090BD00E400E080B500AF024B01221A60BD4680BDC04600E100E080B500AF024B01221A60BD4680BDC04680E100E07E
:4025C00080B500AF00F02CF8BD4680BD80B500AF054B054A1268802109060A431A6000F017F8BD4680BDC0460000064080B500AF064B1B78002B04D1FFF7E2FF034B012294
:402600001A70FFF7E3FFBD4680BDC0464001002080B500AF0A20FFF71DFCBD4680BDC04680B500AF234B234A12680C210A431A60214B00221A60214B214A1A60214B224AD0
:402640001A60224B00221A60214B00221A60214B1D4A1A60204B00221A600A20FFF710FC0A200321FFF7A2FB1C4B0A20191CFFF777FB1B4B00221A601A4B00221A601A4BD8
:4026800000221A60194B1422FF321A60184B00221A60184B00221A60174B10221A70174B00221A80164B00221A60164B00221A60BD4680BD70000640000006406000064023
:4026C00077080080000306400701008004030640100306400002064004020640812C0000C80E0640880E0640480F0640080F0640C80F0640880F0640BD030020DA0300205A
:40270000C4030020C803002080B584B000AF786039600023FB600423BB60384B1B78DBB2102B66D1364B1A680123134002D00823BB605EE00A20FFF7A3FB7B685A00FF237C
:4027400013407B603B68002B03D12C4B24221A7006E02A4B25221A707B68012213437B60284B7A681A60284B284A1A60284B02221A60C046244B1A680823FF331340F9D030
:40278000214B1A680423134002D00023BB601CE01D4B1A680223134002D00223BB6014E0194B1A680123134007D0144B10221A700123BB600123FB6007E0104B10221A7032
:4027C00080235B00BB600123FB600F4B0822FF321A60FB68002B0CD00E4B0E4A1268520052081A600B4B0B4A1268802109060A431A60BB68181CBD4604B080BDBD03002090
:402800006400064040020640000F064017030000680006400000064080B584B000AF786039600023FB600423BB60374B1B78DAB220231340DBB2002B60D07B685A00FF233C
:4028400013407B603B68002B03D12F4B24221A7006E02D4B25221A707B68012213437B602A4B2B4A1A6000F073F9C046294B1A6801231340FAD1284B7A681A60C046234B97
:402880001A680823FF331340F9D0204B1A680423134002D00023BB601CE01C4B1A680223134002D00223BB6014E0184B1A680123134007D0144B10221A700123BB60012392
:4028C000FB6007E0104B10221A7080235B00BB600123FB600D4B0822FF321A60FB68002B0CD00E4B0D4A1268520052081A600B4B0A4A1268802109060A431A60BB68181C0E
:40290000BD4604B080BDC046BD030020000F06401703000068000640400206400000064080B582B000AF00237B6004233B60264B1B78DAB220231340DBB2002B3ED0234BA2
:40294000234A116820220A4001D0182200E010221A60C0461F4B1A681223FF331340F9D01C4B1A681023134002D000233B600EE0184B1A680123134004D001233B600123D9
:402980007B6004E080235B003B6001237B60114B1222FF321A600C4B10221A707B68002B0CD00D4B0C4A1268520052081A600A4B094A1268802109060A431A603B68181CCA
:4029C000BD4602B080BDC046BD0300206800064064000640000F06400000064080B584B000AF78600023FB600423BB602A4B1B78DAB220231340DBB2002B48D0274B7A680E
:402A00001A60C046264B1A680823FF331340F9D0234B1A680423134005D01F4B60221A700023BB601FE01E4B1A680223134005D0194B60221A700223BB6014E0184B1A68F7
:402A40000123134007D0144B10221A700123BB600123FB6007E0104B10221A7080235B00BB600123FB600E4B0822FF321A60FB68002B0CD00B4B0B4A1268520052081A60B6
:402A8000084B084A1268802109060A431A60BB68181CBD4604B080BDBD03002040020640000F06400000064080B584B000AF786001235B42FB601F4B1B78DAB22023134007
:402AC000DBB2002B31D0C0461B4B1A680423134005D11A4B1A680223FF331340F4D0164B1A680423134010D0154B1B68FB60124B04221A607B68002B03D1124B04221A6033
:402B000013E00C4B60221A700FE00C4B0E4A1A600E4B0E4A1268520052081A600B4B0B4A1268802109060A431A60FB68181CBD4604B080BDBD030020C00F0640000F064065
:402B40004003064068000640170300000000064080B582B000AF264B1B687B60C04600F04FF8031C002BFAD0002000F057F8214B204A12680F218A431A601F4B1E4A126816
:402B8000520052081A607A682023134011D0002000F044F80A20FFF793F9012000F03EF8C04600F05FF8031C002BFAD00A20FFF787F9002000F032F80A20FFF781F90F4B28
:402BC00001221A600C4B0C4A1268802109060A431A60084B074A12680F218A430E210A431A60012000F01AF8BD4602B080BDC046640006401000014000000640680006407F
:402C000080B500AF044B1A68022313405B08DBB2181CBD4680BDC0460404044080B584B000AF021CFB1D1A700D4B1B68DAB23B1C0F3301218A431A70FB1D1A78012313403F
:402C4000D9B23B1C0F333A1C0F3212780A431A70034B3A1C0F3212781A60BD4604B080BD0004044080B500AF044B1B68DAB201231340DBB2181CBD4680BDC0460404044007
:402C800080B582B000AF00233B60C34B1B68002B02D0C14B1B689847C04B1A680123134002D0BF4B00221A60BE4B1B78DAB220231340DBB2002B3CD0BB4B1A6880235B00C0
:402CC00013400AD0B94B1B889BB2C022920013439AB2B64B1A8001233B60B34B1A68012313400AD0B14B1B889BB29022920013439AB2AE4B1A8001233B603B68002B18D098
:402D0000A84B1B78DAB201231340DBB2002B01D0012300E00223A54A128892B291B21A1C0B1C13439BB29AB2A04B1A809D4B00221A709C4B1B78DAB220231340DBB2002B8F
:402D400000D1ACE1984B1A68102313401CD0984B10221A60934B1B78DAB201231340DBB2002B01D0012300E00223904A128892B291B21A1C0B1C13439BB29AB28B4B1A80B2
:402D8000884B10221A70C0E1864B1B78DAB208231340DBB2002B29D0834B1A68022313400ED0834B02221A60804B1B889BB28822920013439AB27D4B1A8001233B6015E003
:402DC000784B1B78DAB201231340DBB2002B03D0744B25221A7009E0724B24221A70754B1B68002B02D0744B10221A606D4B1B78DAB204231340DBB2002B00D113E1694BBC
:402E00001B78DAB201231340DBB2002B5CD06B4B1A680823134034D0694B1A68694B19680F231940684B1B68CB18D31A7B607B68082B02D908237B600DE07B68002B0AD1BA
:402E4000624B624A1168624A0A401A6008237B6001233B6011E010E05E4B1A685A4B1B68D2185D4B1B68DBB21370574B1B685A1C554B1A607B68013B7B607B68002BEBD179
:402E80001EE04E4B1A680423134019D0514B1A684D4B1B68D218504B1B68DBB213704A4B1B685A1C484B1A60474B1A68444B1B689A4203D2494B04221A6001E001233B60FF
:402EC000474B484A1A60AEE0374B1A680223134032D0374B02221A60434B1A68434B19680F231940414B186880231B02034001D0012300E00023CB18D21A3B4B1A603A4B03
:402F00001A683B4B1A60294B1B889BB28422920013439AB2254B1A80364B364A1268802149020A431A60334B324A1168324A0A401A6001233B6076E0304B1A68102313404E
:402F400066D015E0284B1A681A4B1B689A420ED22B4B2C4A1168244A12688A181278D2B21A60214B1B685A1C1F4B1A6000E005E01E4B1A680F231340082BE3D11A4B1A68CA
:402F80000C4B1B689A4202D10B4B40221A601E4B1E4A1A6047E0C046440100208C0E0640880E0640BD0300200C0F0640DA030020000F0640D0030020880F0640CC0F064039
:402FC000D403002008030640C403002060000640FFFEFFFFC00300204003064068000640C00F0640ED0F0000CC03002008020640C803002004020640FFFFFEFF8C0F064084
:4030000040020640DC030020800F0640F30700003F4B1A684023134005D03E4B1A683E4B1A6001233B603B68002B6ED03B4B3B4A11683B4A0A401A603A4B00221A603A4B57
:4030400000221A60394B1B78DAB202231340DBB2002B19D0364B1B78DAB201231340DBB2002B01D0092300E00A23324A128892B291B21A1C0B1C13439BB29AB22D4B1A8024
:403080002B4B60221A7040E02B4B2C4A116820220A4001D0182200E010221A6035E0244B1B78DAB210231340DBB2002B2DD1244B234A1268520052081A601D4B10221A7067
:4030C000164B164A11681F4A0A401A60134B134A11681D4A0A401A60124B00221A60124B00221A60194B1A4A1A601A4B1A4A1A601A4B1B4A1A601B4B1B4A1A60104B104A55
:403100001268802109060A431A60BD4602B080BD8C0F0640CC030020C803002060000640FFFEFFFFC80F0640880F0640D8030020BD030020DA030020680006406400064026
:4031400000000640FF5FFFFFFFFCFFFF800F0640ED0F0000C00F0640F3070000400F0640FF0F0000000F0640170300000000000038B50E4B0C4A041C0D1C01F04BF8002881
:4031800004D1201C291C00F04DFF38BD074B064A201C291C00F012FC00F044FF80231B06C018F2E7C046C046000000000000E041F0B55F4656464D464446F0B4460245005E
:4031C000C00F85B00F1C760A2D0E804641D0FF2D26D08024240400212643F6007F3D89468B46F90F7C027800640A000E00918A463CD0FF2834D080231B041C430023E4000A
:403200007F380193009F4346019A7B4049469C4611430F2900D971E0764F89007F58BF46002E3ED10822022391469B46D9E75A46341CC24601920199022937D0032900D11C
:40324000CFE0012900D0ABE053460B400022002632E0002E19D10421012289469346C0E7221C531E9A4102320192CBE701270197002CC7D0201C00F0D7FF431F9C407623CE
:403280005B420021181A0191BCE7301C00F0CCFF7625431F9E406D4200232D1A99469B469FE70C23032199468B469AE7D446012367463B40FF2200267602D205700ADB07CC
:4032C0001043184305B03CBC90469946A246AB46F0BD80260023F603FF22EDE700220026EAE78020C00306423BD0044239D1061C26437602760A009BFF22DDE7281A03908A
:4033000076016401A64239D3361B1A2201230120311C5B007600002901DBB44201D8361B0343013A002AF3DC741EA641341C1C43039A7F32002A27DD630704D00F232340B7
:40334000042B00D00434270103D52B4B039A1C408032FE2A0BDD012361460B40FF220026AAE706437602760A4346FF22A4E7A40101236746660AD2B23B409DE7039F1B2239
:40338000013F03970023C2E77E23039F5B42DB1B1B2B07DD012361460B40002200268BE7D446C5E7221CDA40039B9E339C40231C5C1EA34113435A0704D00F221A40042A4D
:4033C00000D004335F0105D5012361460B400122002671E79E01624601231340760A00226AE78026F60326437602760A5346FF2262E7C046E4450000FFFFFFF710B5041E17
:4034000033D000F011FF9E231B1A962B09DC083884406402640ADBB26402DB05600A184310BD992B0ADD0522121A211CD1400A1C011C1B318C40611E8C411443052801DD5B
:40344000421F9440144A2240610704D00F210C40042C00D0043251010AD59F23181AFF2816D09401640AC3B2D6E700230024D3E7D208FF2B03D05402640ADBB2CCE7002AFC
:4034800006D08024E40314436402640AFF23C3E7FF230024C0E7C046FFFFFFFBF0B5564644465F464D46F0B41F1C0B031B0B9A464B0087B0041C80465B0DC80F161C029365
:4034C0008146002B68D0694B0299994232D08022534652031A43D200630F1A439246644AE000891880460291002400253B031B0B9B467800FB0F321C400D039300D175E021
:403500005A4B984269D08022594652030A43730FD2001A43564B9346C018F200002303994E4671401C430F2C00D9A9E0514EA4003459A74653461C4300D087E00025AA46FA
:40354000A84608240225D1E74946022D6CD0032D00D117E2012D00D058E10D40EDB20024A9460023A0460020002125030A0D1C052D0B1205404B2A43134023435B004C4691
:403580005B08E207191C4046114307B03CBC90469946A246AB46F0BD5346234350D05346002B00D184E1504600F03EFE031E272B00DD76E128210D1A211C083B5246E94093
:4035C0009A400D1C1543221C9A40AA4690462B4B00241B1A0293002588E75B461E430323002E9CD1B3460022022398E75B46334321D05846002800D14EE100F015FE2728F8
:4036000000DD42E128210F1A021C311C083A5B46F94093400F1C1F43331C9340BB461A1C164B181A00237AE701230B4000249946A0460E4B97E70027BB46002201236EE7CF
:40364000002104248A46884601254FE70C2403254CE700258024A9462403A846034B82E7DA46904603991D1C6FE7C046FF07000001FCFFFF24460000FFFF0F800DFCFFFFD2
:40368000029F160C381804904046070C0004000C1204120C031C5343041C3D1C7443554398463B1C73436419A44644460293230C63449D4204D9029D802464022D19029580
:4036C0001D0C039545462C041B04240C1C1905945C46230C051C58432404240C8446381C604365435F438146CC44280C6044BB46814502D980277F02BB442D04070C2D0C4C
:40370000000440195546BC462F04E3448446280C3D0C2F1C5743B8462F1C77434243B94647463F0C9144BA46D14446434A4502D980225202B6184F463A0CB6183A04474695
:403740003F043F0CB8462F1C67435D434443584365190190380C2D184244B846AC4204D9019880235B02C0180190039C029F201C6044C0196045A44147466442A4462B044E
:403780003C049946240C4C44A046D8448018C246E24490429241574652429146F219E245BF417F424B46BC46D845BF41D4187F4263461F432D0C7F19B24292414C45AD4143
:4037C00052426D421543019E7D19AB19E20D5B02059F134342023A439A46531E9A41C30D101C18436402204380465046C0010DD5454601225646049C6B082A401A43F307C5
:4038000001341A43760804949046B246049E634FF319002B61DD404640070BD00F2244462240042A06D042460432424580414042824490465546ED0107D5594B5646049F14
:4038400080201E40C000B2463B18564A934200DDEAE644465546E2086807104301226C025B050A408046240B5B0D91467BE6DA4690461D1C69E680242403574627421CD140
:403880003C432403240B484B6DE6031C283B311C99408B460022C3E6301C00F0C5FC2030ADE6283B211C994000228A4690468EE6201C00F0B9FC203078E65846204207D10D
:4038C000044303992403240B89469046364B4AE63C432403240B344B45E6344B049E9B1B382B06DD01230B4000249946A046002339E61F2B25DC049C2D4D46466019524601
:4039000044468640DC4082405746301C2243DF40441EA04102433B1C540709D00F201040042805D0101D9042924152429B18021C1D021AD501230B4000249946A046012398
:4039400011E61C48049C5546001BC540281C202B16D0194E5746A21997403A1C43461A43531E9A4102430023D6E758075B02D2081C0B01230B401043994680460023F2E5BB
:403980000022EBE78024240350460123044319402403240B8946044BE5E5C046FF030000FFFFFFFEFE070000FF07000002FCFFFF1E040000E2FBFFFF3E040000F8B55F4615
:4039C000564644464D46F0B40C034D00CF0F610A440F2143C4001803DE0F8046B44646465800760A530F3343D600D14A6D0DBA46400DB346904200D1F5E06246012672409C
:403A00009446674500D1ABE02F1A002F00DC11E100283ED15846184300D0F1E0600700D197E00F232340042B00D122E1221DA242A4416442802309191B04012750460B40AB
:403A40000740141C002B00D179E0B94B01359D4200D10BE1B74BE40819404807490204430B0B002000211B031A0B0B0D6D051B0513436A08B04DFF071D4015436D006D08D6
:403A8000291C3943201C3CBC90469946A246AB46F8BDA7488542C1D0802000040343382F00DDFDE01F2F00DD31E12020C01B1A1C5E468240FE40324394465A468240101C6D
:403AC000421E9041FB40624602431F1CA21A9442A4416442C91B091B141C0A029ED549024F0A002F00D1D6E0381C00F09DFB021C083A1F2A00DDC3E02821231C091A97407D
:403B0000CB401F439440954200DDC0E0551B691C1F2900DDEAE01F22551B3B1C221CAB40CA40AC40651EAC411343CF401C43391C002573E780217E4D0027C90300247C4B93
:403B40004807E4080443C9089D4250D009030B0B87E780231B04012752460B40174071E72A1A9446002A00DCA1E0002854D07048854200D152E7802000040343604638287D
:403B800000DD0EE11F2800DD57E162462020801A1E1C8640B1465E46D6404A4632435E4686409046301C421E9041424602436046C3401219A242A441644259180919141C15
:403BC000080200D42AE75A4B01359D4200D131E1584B60081940012323401C1C0443CB071C4349081AE71E4300D00AE705E7231C0B433BD080231B030B431B031B0B30E73C
:403C0000013F002F6DD15E46A21B9442A4416442C91A091B141C60E75846184300D1FDE601267642B4446046002800D0D0E05E463219BFE7002F00D080E0681C4005400DBB
:403C4000012800DCE8E05A46A21A9442BF41C81A7F42C71B3E0200D498E05846041BA3459241591A52428F1AE2463AE700230024F7E680231B04012756460B403740E1E690
:403C8000271C283887400024954200DC3EE72949AD1A3940C2E6201C00F0C6FA203026E75A461A43531E9A41D2B200270EE7002A00D0DEE0681C4605760D012E00DC90E08D
:403CC0001B4DA84200D1F5E05E463219A242A441644259180919CC07520814434908051C9CE61348854200D0D9E697E62B1C1F3B3E1CDE40331C20296FD03F22551BAF4085
:403D00003C43601E84411C430021002586E6381C20381E1CC640301C202F60D04022D71BBB405A461A43531E9A4102430027CDE6FF070000FFFF7FFFFFFF0F80002D37D0FF
:403D4000B64DA84200D18FE080252D047F422943382F00DDA8E01F2F00DD24E12025ED1B0E1CAE40B046261CFE404246AC401643651EAC413443F9405A46141BA3459241C5
:403D80005B1A5242991A051CE246A6E6131C3B43141C002B00D0A4E60027002100250024CDE65A461A43531E9A41D2B2002300E70D1C254358D0FF43002F51D15A46141BDA
:403DC000A3459241591A5242891A051CE24684E69248854200D0D1E620E6002790E700239FE7081C2043002D00D0C2E0002800D1EFE05846184300D110E658460219A242EB
:403E0000A441644259180919141C0A0200D405E6834B0125194001E6081C2043002D38D100286FD15946194303D0191C5C46E246F4E500270021002481E6604620381A1C63
:403E4000C2406646101C202E00D1AAE04022921B93405A461A43531E9A4102430023A8E66E4DA84200D073E7191C5C46051CE246D4E5002D22D10D1C254376D0D543002DBA
:403E800070D15C445C459241591852428918051C96E600284CD15946194300D14AE6191C5C46E2465D4DB9E50C43611E8C41E4B2002161E7051C0021002440E6574DA8422E
:403EC00053D05542802216043143382D7BDC1F2D00DD8CE02022561B0A1CB446B240261CEE403243904662469440661EB44142461443E9405C445C459241CB1852429918CE
:403F0000051C5DE65846184300D187E55E46A71BBC429241C81A5242801A060260D55846041BA3459241591A5242891AE24675E55846184333D04807E40804438020C908D0
:403F40000003014208D0DD08054205D15946CA085C071443291CE246630FC9001943E4002E4D5BE52D4A9042AFD1191C5C46051C54E5002830D05846184310D08025480764
:403F8000E408C9082D0304432942E5D0D8082842E2D15D46EA085C071443011CDCE71F4D3CE5002355E73D1C203D0E1CEE40351C202F2ED04026F71BB9400C43611E8C41DD
:403FC0002C430021D8E60C43611E8C41E4B2002190E7191C5C4621E5191C5C460F4D1DE5031C3B4300D124E7011C3C1C16E52026764276190A1CF2409046202D0BD0402666
:40400000751BA9400C43611E8C4145462C43002170E70021D1E70021F4E7C046FF070000FFFF7FFF70B50B1C124C09030E0B5900021C490DDD0F0020A14211DD0E4881420B
:404040000FDC8020400306430C48401A1F280BDD0B4A521AD640321C5042002D00D1101C70BD084BE818FBE7074BC240C9188E403243F1E7FE0300001D0400003304000060
:4040800013040000FFFFFF7FEDFBFFFFF8B5041E31D0C70F00D04442201C00F0C5F8184D2D1A0A2819DD0B38844024036D05240B6D0D3A1C0026002000210B0D2403240B5A
:4040C0001B0523430F4C2D051C402C4364006408D307211C301C1943F8BD061C1536231CB3401E1C0B23181AC44024036D05240B6D0D3A1CDFE70022002500240026DAE7B1
:404100001E040000FFFF0F8043001B0E5A1C4102D2B270B54C0AC50F012A17DDE02292006407090B9818002200231E0D221C34050C431B4940054008214001434900490890
:40414000ED070B1C2B43101C191C70BD002B15D1002C1CD0201C00F067F80A281ADC0B21091A231CCB40191C031C15339C400D4B0903181A4005090B400DD4E7002C03D045
:404180006407090B0848CEE707480021CBE700200021C8E7011C0B398C40211C0024E6E7FFFF0F8089030000FF0700008446101C62468C46191C634600E0C0461FB500F0F7
:4041C00019F9002801D40021C8421FBD10B500F049F84042013010BD10B500F00BF9002801DB002010BD012010BDC04610B500F001F9002801DD002010BD012010BDC046FF
:4042000010B500F079F8002801DC002010BD012010BDC04610B500F06FF8002801DA002010BD012010BDC0461C2101231B04984201D3000C10391B0A984201D3000A0839D1
:404240001B09984201D30009043902A2105C40187047C04604030202010101010000000000000000F0B55F4656464D464446F0B40D1C041C8046E80F814618030F03000B46
:404280003F0B83B084461B48009749005E00DF0F490D9246760DBB4681420CD01548864210D00120B14215D003B03CBC90469946A246AB46F0BD009F01202743F4D10D48AF
:4042C0008642EED1604602430120002AECD10120B142E9D1009B6345E6D1D045E4D1D94506D00029E0D11C43201C441EA041DBE70020D9E7FF070000F0B55F4656464D46E5
:404300004446F0B4CD0FDE0FAC461D032D0BB146374E0F034C00AB465D0080463F0B640D92466D0DB44232D0314EB54235D0002C0ED1384341424141081C002D0BD00029EE
:4043400019D1CC452DD0654668420123184318E0002DF6D1281C59460A4353425341002806D1002BEDD0634658420123184308E00020002B05D14A46504250414042012321
:4043800018433CBC90469946A246AB46F0BD3E1C0643C9D002204042F3E75E461643C6D0F8E7AC4207DC0BDA614648424841404201231843E5E76646704201231843E0E762
:4043C0005F450AD80ED000205F45DAD2654668426841404201231843D3E76246504201231843CEE7D045F8D80020D045EED3C8E7FF070000F0B556464D4644465F46F0B48B
:404400000D1C83B0041C0190E80F814618030F03000B3F0B84463548009749005E00DF0F490D9246760DB846814234D02F48864236D0002918D0002E1FD1341C67463A4358
:4044400053425341002C1FD00020002B05D142465042504140420123184303B03CBC90469946A246AB46F0BD0098044360426041041C002EE2D00028E9D1C14515D04F46C1
:40448000784201231843E8E7002BF6D04B46584201231843E1E7009F02202743DDD1C5E7674602201743D8D1C3E7B14204DD4A46504201231843D0E7B14207DB0098604552
:4044C000E4D80AD0009F00206745C6D24F4678427841404201231843BFE7019A5245D5D8019A00205245F1D3B7E7C046FF07000070B50E4B0E4D0024ED1AAD101E1CAC42EC
:4045000004D0A300F35898470134F8E700F0AAF8084B094D0024ED1AAD101E1CAC4204D0A300F35898470134F8E770BD70460000704600007046000078460000031C821800
:40454000934202D019700133FAE77047000000000400000000300F40000400400F40000401000F401D300F4013310F4004400F4002600F40800D12012E0136013E40404559
:4045800045EC4720482349FF4AFF4BFF4F01501852805401560458045A045B045F016040624064406540668068806A806C806E800902138019404240480249055002510298
:4045C00059456340724073808740C208C401D001D208D60BD8016E808640DA80E640010110010000FC320000AE320000DC32000036320000DC320000D2320000DC3200002F
:4046000036320000AE320000AE320000D2320000363200002E3200002E3200002E320000E2320000803600006E3800006E380000603600004A3500004A3500005236000094
:40464000603600004A350000523600004A3500006036000048350000483500004835000076380000F8B5C046F8BC08BC9E467047490300002D1C0000F8B5C046F8BC08BCDD
:404680009E4670472103000098460000C800002020000000F8020000000000001F856B3F01000000C0F1FF0F00366E01C05D0000180000000000E02E000000000000000065
:4046C00000000000000000000000000000000000000000000000000000000000000000000000000000000000000000000000000000000000000000000000000000000000BA
:404700000000000000000000000000000000000000000000000000000000000000000000000000000000000000000000000000000000000000000000000000000000000079
:404740000000000000000000000000000000000000000000000000000000000000000000000000000000000000000000000000000000000000000000000000000000000039
:4047800000000000000000000000000000000000000000000000000000000000000000000000000000000000000000000000000000000000000000000000000000000000F9
:0200000490303A
:02000000C8E353
:0200000490402A
:200000000000000000000000000000000000000000000000000000000000000000000000E0
:0200000490501A
:0C000000000204C81193110104DEDA763E
:0200000490600A
:0100000001FE
:00000001FF